:020000040000FA
:0400000058EF00F0C5
:100008005A82FACF01F0FBCF02F0D9CF03F0DACF52
:1000180004F0F2AC12EF00F014EF00F04EEF00F035
:100028009DA819EF00F01BEF00F031EF00F09EA83B
:1000380020EF00F022EF00F031EF00F002D82FEFB0
:1000480000F00500FA6E0001FC51FD6EFD51FE6ED8
:10005800FF6AFA5012004EEF00F09DAA36EF00F04A
:1000680038EF00F04EEF00F09EAA3DEF00F03FEFB2
:1000780000F04EEF00F002D84CEF00F00500FA6EE9
:100088000001FA51FD6EFB51FE6EFF6AFA50120034
:100098004EEF00F004C0DAFF03C0D9FF02C0FBFF37
:0C00A80001C0FAFF5A921100E9EF24F0A9
:1010000000664B3E4B2E4B263CB03F5A4B7A41F884
:101010004BF04BE84BE04BD84BD04BC84B4E4B56AC
:10102000434C75667466657563687469676B65695A
:1010300074203D2025342E326625250D0A00546586
:101040006D70657261747572203D2025302E326698
:101050004320202000494E46004E414E00696E66F6
:09106000006E616E006C66000078
:10106A00000E0001806F000E7F6F51C091F052C0D8
:10107A0092F053C093F054C094F094BF49EF08F033
:10108A0047EF08F05FEF08F0000E806F010E7F6FE8
:10109A0091C005F092C006F093C007F094C008F022
:1010AA00FAEC23F005C091F006C092F007C093F065
:1010BA0008C094F0000E0001986F000E976FF2C0FE
:1010CA0084F0F3C085F07F518011D8A46FEF08F047
:1010DA0071EF08F078EF08F0F6A576EF08F078EFF0
:1010EA0008F092EF08F07F518011D8A47FEF08F042
:1010FA0081EF08F087EF08F0000E6A6F2B0E696F18
:10110A008BEF08F0000E6A6F2D0E696F69C024F12B
:10111A00974B982B8407D8A0850791C005F092C0F9
:10112A0006F093C007F094C008F0F9EC1BF0050430
:10113A000610D8A4A3EF08F0A5EF08F0FCEF08F01A
:10114A00BF0E0001606FFF0E616F5550626F636BD7
:10115A00605162276151632363510AE11A0E625D8D
:10116A00D8A0BAEF08F0BDEF08F0010EBEEF08F004
:10117A00000E6B6F6C6B6B516C11D8B4C7EF08F033
:10118A00C9EF08F0D7EF08F0240E9725056E010E77
:10119A009821066E550E076E100E086E40EC22F06E
:1011AA00E3EF08F0240E9725056E010E9821066ECE
:1011BA005D0E076E100E086E40EC22F00001FD0E67
:1011CA008427FF0E85234FC017F050C018F0240E55
:1011DA00196E010E1A6E84C01BF085C01CF04EEC0D
:1011EA001DF017C04FF018C050F033EF0EF091C049
:1011FA0005F092C006F093C007F094C008F0F9EC2D
:10120A001BF005500610D8A40DEF09F00FEF09F0F6
:10121A0066EF09F0BF0E0001606FFF0E616F555057
:10122A00626F636B605162276151632363510AE104
:10123A001A0E625DD8A024EF09F027EF09F0010E1B
:10124A0028EF09F0000E6D6F6E6B6D516E11D8B4F8
:10125A0031EF09F033EF09F041EF09F0240E972539
:10126A00056E010E9821066E590E076E100E086E55
:10127A0040EC22F04DEF09F0240E9725056E010E81
:10128A009821066E610E076E100E086E40EC22F071
:10129A000001FD0E8427FF0E85234FC017F050C0B2
:1012AA0018F0240E196E010E1A6E84C01BF085C048
:1012BA001CF04EEC1DF017C04FF018C050F033EF81
:1012CA000EF0000E0001996F000E9A6F800E9B6F50
:1012DA003F0E9C6F000E966F000E956F91C005F041
:1012EA0092C006F093C007F094C008F0000E096E91
:1012FA00000E0A6E000E0B6E000E0C6E83EC1FF0D1
:10130A00D8B08AEF09F08CEF09F00FEF0AF0ABEFD3
:10131A0009F099C005F09AC006F09BC007F09CC07E
:10132A0008F0000E096E000E0A6E200E0B6E410EBA
:10133A000C6ECAEC13F005C099F006C09AF007C00B
:10134A009BF008C09CF00001954B962B91C01EF0B3
:10135A0092C01FF093C020F094C021F0000E096ED5
:10136A00000E0A6E200E0B6E410E0C6E99C005F02F
:10137A009AC006F09BC007F09CC008F0CAEC13F0B4
:10138A0005C022F006C023F007C024F008C025F0EB
:10139A0077EC1BF0D8B0D4EF09F0D6EF09F08EEF56
:1013AA0009F0F6EF09F099C01EF09AC01FF09BC031
:1013BA0020F09CC021F0000E226E000E236E200E3B
:1013CA00246E410E256EDFEC15F01EC099F01FC089
:1013DA009AF020C09BF021C09CF000019507D8A08C
:1013EA00960791C01EF092C01FF093C020F094C0DF
:1013FA0021F099C022F09AC023F09BC024F09CC02F
:10140A0025F077EC1BF0D8A00DEF0AF00FEF0AF0E9
:10141A00D8EF09F055C00BF00C6A10EC22F00B5013
:10142A000001866F86C083F0670E8619D8A420EF64
:10143A000AF022EF0AF048EF0AF0F451F511D8A4A5
:10144A0029EF0AF02BEF0AF02FEF0AF0000EF56FE2
:10145A00010EF46FF5BF3CEF0AF0F55106E1F40511
:10146A00D8B03AEF0AF03CEF0AF042EF0AF0000E69
:10147A00826F060E816F51EF0AF0F4C081F0F5C059
:10148A0082F051EF0AF0F5BF4DEF0AF04FEF0AF084
:10149A003CEF0AF042EF0AF0670E8619D8A458EF1B
:1014AA000AF05AEF0AF089EF0AF096AF68EF0AF0ED
:1014BA00FC0E955DFF0E9659D8A066EF0AF068EF0C
:1014CA000AF087EF0AF0FF0E606FFF0E616F81C0AE
:1014DA0062F082C063F060516227615163239551C3
:1014EA00625D6351800A646F9651800A6459D8A07C
:1014FA0081EF0AF083EF0AF087EF0AF0660E836F36
:10150A0089EF0AF0650E836F81C079F082C07AF0A4
:10151A00670E8619D8A494EF0AF096EF0AF0A6EFA0
:10152A000AF0660E8319D8A49DEF0AF09FEF0AF01D
:10153A00A8EF0AF096BFA6EF0AF0A4EF0AF0A8EF08
:10154A000AF0794B7A2B660E8319D8A4AFEF0AF00A
:10155A00B1EF0AF0D1EF0AF096BFB8EF0AF0B6EF92
:10156A000AF0C4EF0AF0000E996F000E9A6F800E0F
:10157A009B6F3F0E9C6F000E966F000E956F670E65
:10158A008619D8B4CBEF0AF0CDEF0AF0D1EF0AF002
:10159A009551792796517A23000E906F000E8F6F1E
:1015AA0091C087F092C088F093C089F094C08AF005
:1015BA0099C065F09AC066F09BC067F09CC068F05D
:1015CA0062EF0BF087C01EF088C01FF089C020F0C0
:1015DA008AC021F099C022F09AC023F09BC024F05F
:1015EA009CC025F0DFEC15F01EC037F01FC038F0A4
:1015FA0020C039F021C03AF0ACEC17F037C08BF0BC
:10160A0038C08CF039C08DF03AC08EF08BC005F02E
:10161A008CC006F08DC007F08EC008F0F4EC1AF00A
:10162A0005C07DF006C07EF087C047F088C048F04C
:10163A0089C049F08AC04AF099C009F09AC00AF0F4
:10164A009BC00BF09CC00CF08BC005F08CC006F060
:10165A008DC007F08EC008F0CAEC13F005C04BF03D
:10166A0006C04CF007C04DF008C04EF0F1EC22F075
:10167A0047C087F048C088F049C089F04AC08AF05C
:10168A0099C01EF09AC01FF09BC020F09CC021F0A8
:10169A00000E226E000E236E200E246E410E256E61
:1016AA00DFEC15F01EC099F01FC09AF020C09BF025
:1016BA0021C09CF000018F4B902B79518F5D905186
:1016CA00800A606F7A51800A6059D8A06FEF0BF0D8
:1016DA0071EF0BF0E7EF0AF099C005F09AC006F037
:1016EA009BC007F09CC008F0000E096E000E0A6E3F
:1016FA00A00E0B6E400E0C6ECAEC13F005C08BF0F8
:10170A0006C08CF007C08DF008C08EF087C01EF0AE
:10171A0088C01FF089C020F08AC021F08BC022F057
:10172A008CC023F08DC024F08EC025F077EC1BF01E
:10173A00D8B0A2EF0BF0A4EF0BF0AFEF0BF0000E56
:10174A0000018B6F000E8C6F000E8D6F000E8E6F76
:10175A00D8EF0BF087C005F088C006F089C007F003
:10176A008AC008F08BC009F08CC00AF08DC00BF05B
:10177A008EC00CF083EC1FF0D8A0C6EF0BF0C8EFB8
:10178A000BF0D8EF0BF000017DB1CEEF0BF0D0EFEC
:10179A000BF0D8EF0BF0000E8B6F000E8C6F000E63
:1017AA008D6F000E8E6F91C037F092C038F093C0E3
:1017BA0039F094C03AF08BC03BF08CC03CF08DC03D
:1017CA003DF08EC03EF06AEC11F037C087F038C0A9
:1017DA0088F039C089F03AC08AF065C099F066C0CD
:1017EA009AF067C09BF068C09CF0650E00018319EF
:1017FA00D8B402EF0CF004EF0CF00AEF0CF095C02D
:10180A007BF096C07CF00EEF0CF0000E7C6F000EA1
:10181A007B6F000E786F000E776F000E766F000EEA
:10182A00756F000E906F000E8F6F09EF0DF087C075
:10183A001EF088C01FF089C020F08AC021F099C02C
:10184A0022F09AC023F09BC024F09CC025F0DFEC64
:10185A0015F01EC037F01FC038F020C039F021C083
:10186A003AF0ACEC17F037C08BF038C08CF039C0C6
:10187A008DF03AC08EF08BC005F08CC006F08DC09A
:10188A0007F08EC008F0F4EC1AF005C07DF006C02F
:10189A007EF00001F6B954EF0CF056EF0CF073EF3E
:1018AA000CF07D517E11D8A45DEF0CF05FEF0CF0C7
:1018BA0073EF0CF0670E8619D8A466EF0CF068EF88
:1018CA000CF073EF0CF07CBF6FEF0CF06DEF0CF0C7
:1018DA0073EF0CF0754B762BBDEF0CF07751781146
:1018EA00D8A47AEF0CF07CEF0CF0A6EF0CF07CBFDA
:1018FA0083EF0CF081EF0CF0A6EF0CF0240E972585
:10190A00D96E010E9821DA6E2E0EDF6E974B982B48
:10191A008407D8A08507000E786F010E776FA6EFAF
:10192A000CF0240E9725D96E010E9821DA6E300E2E
:10193A00DF6E974B982B8407D8A085077507D8A028
:10194A00760775517611D8A4ADEF0CF0AFEF0CF015
:10195A0096EF0CF0240E9725D96E010E9821DA6EB7
:10196A007D51300FDF6E974B982B8407D8A08507DF
:10197A0087C047F088C048F089C049F08AC04AF059
:10198A0099C009F09AC00AF09BC00BF09CC00CF0F9
:10199A008BC005F08CC006F08DC007F08EC008F031
:1019AA00CAEC13F005C04BF006C04CF007C04DF06E
:1019BA0008C04EF0F1EC22F047C087F048C088F02A
:1019CA0049C089F04AC08AF099C01EF09AC01FF037
:1019DA009BC020F09CC021F0000E226E000E236EE8
:1019EA00200E246E410E256EDFEC15F01EC099F014
:1019FA001FC09AF020C09BF021C09CF000017B0719
:101A0A00D8A07C078F4B902B79518F5D9051800A1B
:101A1A00606F7A51800A6059D8B016EF0DF018EF4E
:101A2A000DF026EF0DF098BF24EF0DF0985109E163
:101A3A004B0E975DD8A024EF0DF026EF0DF01CEFAA
:101A4A000CF077517811D8A42DEF0DF02FEF0DF08F
:101A5A0040EF0DF0F6A934EF0DF036EF0DF040EF40
:101A6A000DF0240E9725D96E010E9821DA6E2E0EEE
:101A7A00DF6E974B982B240E9725D96E010E98216D
:101A8A00DA6E000EDF6E650E8319D8A44FEF0DF0E3
:101A9A0051EF0DF021EF0EF0000E906F4F0E8F6F89
:101AAA00240E8F25D96E010E9021DA6E000EDF6E9C
:101ABA00000E806F000E7F6F96BF68EF0DF066EF25
:101ACA000DF070EF0DF0000E806F010E7F6F956DB7
:101ADA00961FD8B0962B000E826F020E816FA1EF6F
:101AEA000DF08F07D8A09007240E8F25D96E010E0E
:101AFA009021DA6E95C005F096C006F0000E086EC9
:101B0A000A0E076ED5EC1EF00550300FDF6E95C039
:101B1A0005F096C006F0000E086E0A0E076EB1ECCC
:101B2A001DF005C095F006C096F000018107D8A007
:101B3A0082078407D8A0850795519611D8A4A8EFE3
:101B4A000DF0AAEF0DF076EF0DF082BFB7EF0DF0B2
:101B5A00825106E18105D8B0B5EF0DF0B7EF0DF06F
:101B6A0076EF0DF08F07D8A090077F518011D8A487
:101B7A00C1EF0DF0C3EF0DF0C9EF0DF0000E706F5D
:101B8A002B0E6F6FCDEF0DF0000E706F2D0E6F6F75
:101B9A00240E8F25D96E010E9021DA6E6FC0DFFFF9
:101BAA008407D8A085078F07D8A09007BF0E606F5B
:101BBA00FF0E616F5550626F636B6051622761510E
:101BCA00632363510AE11A0E625DD8A0EFEF0DF0AC
:101BDA00F2EF0DF0010EF3EF0DF0000E736F746B60
:101BEA0073517411D8A4FCEF0DF0FEEF0DF004EF61
:101BFA000EF0000E726F650E716F08EF0EF0000E98
:101C0A00726F450E716F240E8F25D96E010E9021C9
:101C1A00DA6E71C0DFFF8407D8A08507240E9725E6
:101C2A00056E010E9821066E240E8F25076E010E91
:101C3A009021086E40EC22F04FC017F050C018F007
:101C4A00240E196E010E1A6E84C01BF085C01CF09A
:101C5A004EEC1DF017C04FF018C050F012009FC094
:101C6A00D9FFA0C0DAFFDECFF6FFDDCFF7FFF86AB3
:101C7A000800F550250AD8A445EF0EF047EF0EF0FC
:101C8A004DEF11F09FC0D9FFA0C0DAFFDE2A000E87
:101C9A00DD22000E0001F36F000EF26FF2C0F6F0C3
:101CAA00F3C0F7F0F469F569000EA86F000EA76F8C
:101CBA00A6EF0EF0F6819FC0D9FFA0C0DAFFDE2A98
:101CCA00000EDD22A6EF0EF0F68360EF0EF0F68529
:101CDA0060EF0EF0F68760EF0EF0F68960EF0EF017
:101CEA00000EA86F010EA76FA6EF0EF09FC0D9FFD6
:101CFA00A0C0DAFFDECFF6FFDDCFF7FFF86A0800F3
:101D0A00F550A36FA46BA451000AD8B48FEF0EF05C
:101D1A0075EF0EF0A351200AD8B46FEF0EF0030A44
:101D2A00D8B472EF0EF0080AD8B46CEF0EF0060AB7
:101D3A00D8B45FEF0EF01D0AD8B469EF0EF075EF54
:101D4A000EF0A751A811D8B4ADEF0EF0AFEF0EF018
:101D5A007BEF0EF0F6A1B4EF0EF0B6EF0EF0B7EF90
:101D6A000EF0F6939FC0D9FFA0C0DAFFDECFF6FFD0
:101D7A00DDCFF7FFF86A0800F5502A0AD8A4C8EFA1
:101D8A000EF0CAEF0EF0F3EF0EF09FC0D9FFA0C01D
:101D9A00DAFFDE2A000EDD22A1C0D9FFA2C0DAFFD7
:101DAA00DFCFA3F0020EDE26DFCFA4F0000EDD2285
:101DBA00A3C0D9FFA4C0DAFFDECFF2F0DDCFF3F083
:101DCA00F3BFECEF0EF0EAEF0EF038EF0FF0F6810A
:101DDA00F26DF31FD8B0F32B38EF0FF09FC0D9FF85
:101DEA00A0C0DAFFDECF0CF0DDCF0DF08FEC19F0DA
:101DFA000CC0F2F00DC0F3F00AEF0FF09FC0D9FF4C
:101E0A00A0C0DAFFDE2A000EDD22D00E0001A36F89
:101E1A00FF0EA46F9FC0D9FFA0C0DAFFDECFF6FF86
:101E2A00DDCFF7FFF86A0800F550A56FA66BA3513E
:101E3A00A527A451A623A6510AE10A0EA55DD8A09A
:101E4A0029EF0FF02CEF0FF0010E2DEF0FF0000E1F
:101E5A00A96FAA6BA951AA11D8A436EF0FF038EFCF
:101E6A000FF003EF0FF09FC0D9FFA0C0DAFFDECF5B
:101E7A00F6FFDDCFF7FFF86A0800F5502E0AD8A45E
:101E8A0049EF0FF04BEF0FF0CBEF0FF0000EF56FAD
:101E9A00000EF46F9FC0D9FFA0C0DAFFDE2A000E41
:101EAA00DD229FC0D9FFA0C0DAFFDECFF6FFDDCF6B
:101EBA00F7FFF86A0800F5502A0AD8A467EF0FF06E
:101ECA0069EF0FF086EF0FF09FC0D9FFA0C0DAFFCD
:101EDA00DE2A000EDD22A1C0D9FFA2C0DAFFDFCFC1
:101EEA00A3F0020EDE26DFCFA4F0000EDD22A3C08F
:101EFA00D9FFA4C0DAFFDECFF4F0DDCFF5F0CBEFE7
:101F0A000FF09FC0D9FFA0C0DAFFDECF0CF0DDCF03
:101F1A000DF08FEC19F00CC0F4F00DC0F5F09DEF48
:101F2A000FF09FC0D9FFA0C0DAFFDE2A000EDD2223
:101F3A00D00E0001A36FFF0EA46F9FC0D9FFA0C0EF
:101F4A00DAFFDECFF6FFDDCFF7FFF86A0800F550BB
:101F5A00A56FA66BA351A527A451A623A6510AE1F2
:101F6A000A0EA55DD8A0BCEF0FF0BFEF0FF0010E6F
:101F7A00C0EF0FF0000EAB6FAC6BAB51AC11D8A435
:101F8A00C9EF0FF0CBEF0FF096EF0FF09FC0D9FF1C
:101F9A00A0C0DAFFDECFF6FFDDCFF7FFF86A080050
:101FAA00F5500B6E0C6A10EC22F00B500001B36F67
:101FBA00B351D8B4E3EF0FF0E5EF0FF021EF10F0D3
:101FCA009FC0D9FFA0C0DAFFDECFA3F0DDCFA4F017
:101FDA00010EA327000EA423A3C0F6FFA4C0F7FF97
:101FEA00F86A0800F5500B6E0C6A10EC22F00B50E0
:101FFA000001B46FB451D8B405EF10F007EF10F038
:10200A0021EF10F09FC0D9FFA0C0DAFFDECFA3F006
:10201A00DDCFA4F0020EA327000EA423A3C0F6FF6F
:10202A00A4C0F7FFF86A0800F5500B6E0C6A10ECB2
:10203A0022F00B500001B56F660EB319D8A428EF31
:10204A0010F02AEF10F06BEF10F09FC0D9FFA0C07C
:10205A00DAFFDECFF6FFDDCFF7FFF86A0800F5CF2B
:10206A00B6F09FC0D9FFA0C0DAFFDE2A000EDD223B
:10207A00A1C0D9FFA2C0DAFFDFCFA3F0040EDE268B
:10208A00DFCFA4F0000EDD22A3C0D9FFA4C0DAFF7F
:10209A00DECFAFF0DECFB0F0DECFB1F0DECFB2F000
:1020AA009DC04FF09EC050F0AFC051F0B0C052F08A
:1020BA00B1C053F0B2C054F0B6C055F035EC08F0D8
:1020CA004FC09DF050C09EF069EF11F0B30E056E3F
:1020DA00000E066E650E076E100E086E000E0A6E72
:1020EA00020E096E78EC1CF005500610D8A480EF99
:1020FA0010F082EF10F014EF11F09FC0D9FFA0C0CA
:10210A00DAFFDECFA3F0DDCFA4F0010E0001A32792
:10211A00000EA423A3C0F6FFA4C0F7FFF86A0800C4
:10212A00F5CFB6F0BF0EA36FFF0EA46F9FC0D9FF05
:10213A00A0C0DAFFDECFF6FFDDCFF7FFF86A0800AE
:10214A00F550A56FA66BA351A527A451A623A651A6
:10215A000AE11A0EA55DD8A0B5EF10F0B8EF10F09D
:10216A00010EB9EF10F0000EAD6FAE6BAD51AE11AE
:10217A00D8B4C2EF10F0C4EF10F0DEEF10F0A1C037
:10218A00D9FFA2C0DAFFDFCFA3F0040EDE26DFCF2D
:10219A00A4F0000EDD22A3C0D9FFA4C0DAFFDECF6F
:1021AA00AFF0DECFB0F0DECFB1F0DECFB2F0F6EFB7
:1021BA0010F0A1C0D9FFA2C0DAFFDFCFA3F0040E4E
:1021CA00DE26DFCFA4F0000EDD22A3C0D9FFA4C013
:1021DA00DAFFDECFAFF0DECFB0F0DECFB1F0DECF88
:1021EA00B2F0020E9FC0D9FFA0C0DAFFDE26000EB1
:1021FA00DD229DC04FF09EC050F0AFC051F0B0C07C
:10220A0052F0B1C053F0B2C054F0B6C055F035EC3C
:10221A0008F04FC09DF050C09EF069EF11F09FC0CA
:10222A00D9FFA0C0DAFFDECFF6FFDDCFF7FFF86AED
:10223A000800F550250AD8A425EF11F027EF11F070
:10224A003FEF11F09FC0D9FFA0C0DAFFDE2A000ECF
:10225A00DD22000E086E250E076E9DC009F09EC095
:10226A000AF02BEC20F0000E00019E6F010E9D6F0C
:10227A0069EF11F09FC0D9FFA0C0DAFFDE2A000E75
:10228A00DD22000E00019E6F000E9D6F69EF11F0B6
:10229A009FC0D9FFA0C0DAFFDECFF6FFDDCFF7FF80
:1022AA00F86A0800F550076E086A9DC009F09EC0DA
:1022BA000AF02BEC20F09FC0D9FFA0C0DAFFDE2A7B
:1022CA00000EDD2238EF11F012003A50800B436EF7
:1022DA003A503A24456E39AE75EF11F077EF11F0A6
:1022EA0078EF11F045804550D8B47EEF11F080EFB9
:1022FA0011F095EF11F04528D8A486EF11F088EF78
:10230A0011F090EF11F0000E376E000E386E000ECD
:10231A00396E000E3A6E398E000E3A6E9DEF11F04C
:10232A00000E376E000E386E000E396E000E3A6ED1
:10233A003E50800B446E43504418D8B4A7EF11F0B6
:10234A00A9EF11F0AAEF11F0438C3E503E24446EDF
:10235A003DAEB2EF11F0B4EF11F0B5EF11F04480D9
:10236A004450D8B4BBEF11F0BDEF11F0D2EF11F029
:10237A004428D8A4C3EF11F0C5EF11F0CDEF11F046
:10238A00000E3B6E000E3C6E000E3D6E000E3E6E61
:10239A003D8E000E3E6EDAEF11F0000E3B6E000E1F
:1023AA003C6E000E3D6E000E3E6E4550445CD8B049
:1023BA00E1EF11F0E3EF11F00AEF12F043ACE8EFAE
:1023CA0011F0EAEF11F0ECEF11F0800E431A45C05C
:1023DA0046F044C045F046C044F037C046F03BC022
:1023EA0037F046C03BF038C046F03CC038F046C033
:1023FA003CF039C046F03DC039F046C03DF03AC025
:10240A0046F03EC03AF046C03EF0000E466E4550D9
:10241A0044C03FF0406A3F5E000E405A40BE1FEF84
:10242A0012F0405009E11A0E3F5CD8A01FEF12F0DB
:10243A0021EF12F058EF12F03750381039103A10D5
:10244A00D8A42AEF12F02DEF12F0010E2EEF12F09F
:10245A00000E466E000E376E000E386E000E396E94
:10246A00000E3A6E44C045F061EF12F046A040EF0C
:10247A0012F042EF12F048EF12F0D89046300109FC
:10248A00466E4AEF12F0D890463237A04FEF12F05C
:10249A0051EF12F052EF12F0468E3A343A32393294
:1024AA0038323732452A4450455CD8A05FEF12F0E3
:1024BA0061EF12F03BEF12F043BC66EF12F068EFE7
:1024CA0012F0A8EF12F04550D8A46EEF12F070EF98
:1024DA0012F07AEF12F0000E376E000E386E000E10
:1024EA00396E000E3A6EC9EF13F03B5037263C5056
:1024FA0038223D5039223E503A223AA087EF12F054
:10250A0089EF12F035EF13F046A08EEF12F090EF3C
:10251A0012F096EF12F0D89046300109466E98EF05
:10252A0012F0D890463237A09DEF12F09FEF12F0CA
:10253A00A0EF12F0468E3A343A3239323832373214
:10254A00452A35EF13F03B50375C3C5038583D5024
:10255A0039583A50800A3F6E3E50800A3F58D8B0E8
:10256A00B9EF12F0BBEF12F0E6EF12F037503B5C16
:10257A003F6E38503C58406E39503D58416E3A5083
:10258A003E58426EFF0E3F24376EFF0E4020386ED3
:10259A00FF0E4120396EFF0E42203A6E800E431A1A
:1025AA00466C4650D8A4DCEF12F0DEEF12F0EEEFE4
:1025BA0012F0010E3726000E382239223A22EEEFA7
:1025CA0012F03B50375E3C50385A3D50395A3E5013
:1025DA003A5A3750381039103A10D8A4F7EF12F097
:1025EA00F9EF12F02EEF13F04650D8A4FFEF12F0D5
:1025FA0001EF13F02EEF13F0000E376E000E386E57
:10260A00000E396E000E3A6EC9EF13F0D8903736C5
:10261A00383639363A3646AE15EF13F017EF13F05F
:10262A0018EF13F0378046A01DEF13F01FEF13F0D9
:10263A0023EF13F0D880463625EF13F0D8904636AC
:10264A004550D8B42BEF13F02DEF13F02EEF13F003
:10265A00450639AE33EF13F035EF13F00BEF13F0F5
:10266A00000E446E46AE3CEF13F03EEF13F056EF09
:10267A0013F046C03FF07F0E3F16D8B447EF13F071
:10268A0049EF13F04DEF13F0010E446E56EF13F0BD
:10269A0037A052EF13F054EF13F056EF13F049EF4F
:1026AA0013F04450D8B45CEF13F05EEF13F089EFE7
:1026BA0013F0010E3726000E382239223A223AA0A8
:1026CA0069EF13F06BEF13F089EF13F037C03FF0A7
:1026DA0038C040F039C041F03AC042F04234423288
:1026EA00413240323F323FC037F040C038F041C03B
:1026FA0039F042C03AF04528D8B486EF13F088EF93
:10270A0013F089EF13F0452A4528D8B48FEF13F058
:10271A0091EF13F099EF13F04550D8A497EF13F007
:10272A0099EF13F0ABEF13F0000E376E000E386E10
:10273A00000E396E000E3A6E4550D8A4A7EF13F07A
:10274A00A9EF13F0ABEF13F0000E436E45A0B0EF04
:10275A0013F0B2EF13F0B5EF13F0398EB6EF13F0B2
:10276A00399ED89045303A6E43AEBEEF13F0C0EFB3
:10277A0013F0C1EF13F03A8E37C037F038C038F093
:10278A0039C039F03AC03AF012000850800B116E85
:10279A0008500824176E07AED5EF13F0D7EF13F0E1
:1027AA00D8EF13F017801750D8B4DEEF13F0E0EF2C
:1027BA0013F0F3EF13F01728D8A4E6EF13F0E8EFBD
:1027CA0013F0F0EF13F0000E056E000E066E000E09
:1027DA00076E000E086E078EFBEF13F0000E056EF3
:1027EA00000E066E000E076E000E086E0C50800B6F
:1027FA00111A0C500C24126E0BAE06EF14F008EFEF
:10280A0014F009EF14F012801250D8B40FEF14F03C
:10281A0011EF14F024EF14F01228D8A417EF14F0D3
:10282A0019EF14F021EF14F0000E096E000E0A6E73
:10283A00000E0B6E000E0C6E0B8E2CEF14F0000EB9
:10284A00096E000E0A6E000E0B6E000E0C6E125010
:10285A00D8B432EF14F034EF14F03CEF14F0175000
:10286A00D8A43AEF14F03CEF14F046EF14F0000E3F
:10287A00056E000E066E000E076E000E086EDEEF85
:10288A0015F00B500502F3CF1CF0F4CF1DF01C50CD
:10289A00136E146A156A166A1D50186E196A1A6A36
:1028AA001B6A0A500602F3CF1CF0F4CF1DF01C502D
:1028BA001326000E1422152216221D501826000E69
:1028CA0019221A221B2209500702F3CF1CF0F4CF57
:1028DA001DF01C501326000E1422152216221D501C
:1028EA001826000E19221A221B2215C016F014C02F
:1028FA0015F013C014F0136A09500602F3CF1CF046
:10290A00F4CF1DF01C5013261D501422000E152260
:10291A00000E16220A500502F3CF1CF0F4CF1DF068
:10292A001C5013261D501422000E1522000E1622CA
:10293A0015C016F014C015F013C014F0136A09502C
:10294A000502F3CF1CF0F4CF1DF01C5013261D50C6
:10295A001422000E1522000E16220B500602F3CF87
:10296A001CF0F4CF1DF01C5018261D501922000E21
:10297A001A22000E1B220A500702F3CF1CF0F4CFD2
:10298A001DF01C5018261D501922000E1A22000E86
:10299A001B220B500702F3CF1CF0F4CF1DF01C5082
:1029AA000D6E1D500E6E0F6A106A0FC010F00EC029
:1029BA000FF00DC00EF00D6A0D5018260E50192298
:1029CA000F501A2210501B2213C00DF014C00EF023
:1029DA0015C00FF016C010F0190EF9EF14F0D890C8
:1029EA0010320F320E320D32E82EF4EF14F00D5081
:1029FA0018260E5019220F501A2210501B2215C0E9
:102A0A0016F014C015F013C014F0136A125017C050
:102A1A000DF00E6A0D26000E0E22820E0D241C6E7B
:102A2A00FF0E0E201D6E2FEF15F0D89018361936AE
:102A3A001A361B3616AE24EF15F026EF15F027EFDF
:102A4A0015F01880D89013361436153616361C062B
:102A5A00D8A01D061AAE34EF15F036EF15F01AEFAE
:102A6A0015F0000E126E16AE3DEF15F03FEF15F0A1
:102A7A0063EF15F0FF0E13140D6EFF0E14140E6E95
:102A8A00FF0E15140F6E7F0E1614106E0D500E10D9
:102A9A000F101010D8B454EF15F056EF15F05AEF86
:102AAA0015F0010E126E63EF15F018A05FEF15F026
:102ABA0061EF15F063EF15F056EF15F01250D8B428
:102ACA0069EF15F06BEF15F08FEF15F0010E182670
:102ADA00000E19221A221B221BA076EF15F078EF9E
:102AEA0015F08FEF15F018C00DF019C00EF01AC0CE
:102AFA000FF01BC010F0103410320F320E320D32AC
:102B0A000DC018F00EC019F00FC01AF010C01BF05B
:102B1A001C4A1D2A1DBE9AEF15F01D5008E11C28FB
:102B2A00D8A09AEF15F09CEF15F0A6EF15F0000E5D
:102B3A00186E000E196E800E1A6E7F0E1B6ED4EF81
:102B4A0015F01DBEB3EF15F01D5006E11C04D8B0F8
:102B5A00B1EF15F0B3EF15F0BFEF15F0000E186ED8
:102B6A00000E196E000E1A6E000E1B6E000E116E0C
:102B7A00D4EF15F01CC017F0FF0E1816FF0E191629
:102B8A007F0E1A16000E1B1617A0CEEF15F0D0EF07
:102B9A0015F0D1EF15F01A8ED89017301B6E115020
:102BAA001B1218C005F019C006F01AC007F01BC0A6
:102BBA0008F012002150800B2E6E21502124356E10
:102BCA0020AEEAEF15F0ECEF15F0EDEF15F03580D9
:102BDA003550D8B4F3EF15F0F5EF15F00AEF16F00B
:102BEA003528D8A4FBEF15F0FDEF15F005EF16F028
:102BFA00000E1E6E000E1F6E000E206E000E216E5D
:102C0A00208E000E216E12EF16F0000E1E6E000EC0
:102C1A001F6E000E206E000E216E2550800B2E1A9C
:102C2A0025502524366E24AE1DEF16F01FEF16F040
:102C3A0020EF16F036803650D8B426EF16F028EF7B
:102C4A0016F03DEF16F03628D8A42EEF16F030EF26
:102C5A0016F038EF16F0000E226E000E236E000EEC
:102C6A00246E000E256E248E000E256E45EF16F09A
:102C7A00000E226E000E236E000E246E000E256ECC
:102C8A002250231024102510D8A44EEF16F050EF2E
:102C9A0016F068EF16F0000E1E6E000E1F6E000E84
:102CAA00206E000E216E800E20127F0E21122E50F1
:102CBA0021121EC01EF01FC01FF020C020F021C02C
:102CCA0021F0ABEF17F03550D8A46EEF16F070EF85
:102CDA0016F07AEF16F0000E1E6E000E1F6E000E32
:102CEA00206E000E216EABEF17F0365035C026F07D
:102CFA00276A265E000E275A7F0E26242F6E000EA4
:102D0A002720306E1EC02AF01FC02BF020C02CF0E6
:102D1A0021C02DF0000E1E6E000E1F6E000E206EDA
:102D2A00000E216E000E316E000E326E000E336EF2
:102D3A00000E346E000E366EDBEF16F03650D8B445
:102D4A00A9EF16F0ABEF16F0C2EF16F0D8902A36BC
:102D5A002B362C362D36D8901E361F362036213685
:102D6A0034AEBAEF16F0BCEF16F0BDEF16F01E80C7
:102D7A00D890313632363336343622502A5C2350D4
:102D8A002B5824502C5825502D58D8A0CFEF16F088
:102D9A00D1EF16F0DAEF16F0348C22502A5E235067
:102DAA002B5A24502C5A25502D5A362A190E36647D
:102DBA00E1EF16F0E3EF16F0A3EF16F02A502B100E
:102DCA002C102D10D8B4ECEF16F0EEEF16F006EF3B
:102DDA0017F0318006EF17F0D8901E361F362036CE
:102DEA00213634AEFBEF16F0FDEF16F0FEEF16F0CB
:102DFA001E80D89031363236333634362F06D8A074
:102E0A00300620AE0BEF17F00DEF17F0F1EF16F0CA
:102E1A00000E366E34AE14EF17F016EF17F03AEFD5
:102E2A0017F0FF0E3114266EFF0E3214276EFF0EB6
:102E3A003314286E7F0E3414296E2650271028105A
:102E4A002910D8B42BEF17F02DEF17F031EF17F048
:102E5A00010E366E3AEF17F01EA036EF17F038EF74
:102E6A0017F03AEF17F02DEF17F03650D8B440EFBD
:102E7A0017F042EF17F066EF17F0010E1E26000E4C
:102E8A001F222022212221A04DEF17F04FEF17F029
:102E9A0066EF17F01EC026F01FC027F020C028F0EA
:102EAA0021C029F02934293228322732263226C075
:102EBA001EF027C01FF028C020F029C021F02F4A99
:102ECA00302A30BE71EF17F0305008E12F28D8A011
:102EDA0071EF17F073EF17F07EEF17F0000E306EF8
:102EEA002F68000E1E6E000E1F6E000E206E000E62
:102EFA00216E30BE8BEF17F0305006E12F04D8B0A8
:102F0A0089EF17F08BEF17F099EF17F0000E306E7C
:102F1A00000E2F6E000E1E6E000E1F6E000E206E2B
:102F2A00000E216E000E2E6E2FC035F035A0A0EFD8
:102F3A0017F0A2EF17F0A5EF17F0208EA6EF17F003
:102F4A00209ED8903530216E5CEF16F01200DDC05D
:102F5A0047F0DEC048F0DFC049F0E0C04AF037C0B1
:102F6A0047F038C048F039C049F03AC04AF0810EFB
:102F7A003B6EFF0E3C6E47C03DF048C03EF049C074
:102F8A003FF04AC040F0180ED0EF17F0D890403208
:102F9A003F323E323D32E82ECBEF17F03D503B2414
:102FAA00456E000E3C20466E46BEE5EF17F04650D1
:102FBA0009E1170E455CD8A0E5EF17F0E7EF17F027
:102FCA00F1EF17F037C037F038C038F039C039F0B0
:102FDA003AC03AF0B4EF18F046BEF6EF17F0F8EF41
:102FEA0017F068EF18F045C03BF0FF0E3C6EFF0E7D
:102FFA003D6E7F0E3E6E000E3F6E3B6607EF18F089
:10300A000FEF18F03F343F323E323D323C323B2E16
:10301A0002EF18F03CC041F03DC042F03EC043F020
:10302A003FC044F0415047143B6E425048143C6E36
:10303A00435049143D6E44504A143E6E3B503C1076
:10304A003D103E10D8A42CEF18F02EEF18F030EFF8
:10305A0018F0E7EF17F047C03BF048C03CF049C012
:10306A003DF04AC03EF0200E40EF18F0D8903E32B4
:10307A003D323C323B32E82E3BEF18F03B503C10DD
:10308A003D103E10D8B44CEF18F04EEF18F056EF42
:10309A0018F0415047264250482243504922445092
:1030AA004A22411C3B6E421C3C6E431C3D6E441C32
:1030BA003E6E3B5047163C5048163D5049163E500E
:1030CA004A16ACEF18F047C03BF048C03CF049C084
:1030DA003DF04AC03EF0200E78EF18F0D8903E320C
:1030EA003D323C323B32E82E73EF18F03B503C1035
:1030FA003D103E10D8A484EF18F086EF18F090EF38
:10310A0018F0000E476E000E486E000E496E000E53
:10311A004A6EACEF18F0D89047343B6E48343C6E98
:10312A0049343D6E4A343E6E3B503C103D103E10D1
:10313A00D8B4A2EF18F0A4EF18F0ACEF18F0000E14
:10314A00476E000E486E800E496EBF0E4A6E47C02B
:10315A0037F048C038F049C039F04AC03AF0120096
:10316A000D6E0D50D8B4BCEF18F0BEEF18F0E0EFBA
:10317A0018F008BEC5EF18F0C3EF18F0E0EF18F02A
:10318A0005C009F006C00AF007C00BF008C00CF031
:10319A00091E0A1E0B1E0C1E092A000E0A220B22E9
:1031AA000C2209C00FF00AC010F00BC011F00CC0BD
:1031BA0012F0E8EF18F005C00FF006C010F007C0D3
:1031CA0011F008C012F00550061007100810D8A414
:1031DA00F1EF18F0F3EF18F0FDEF18F0000E056E9E
:1031EA00000E066E000E076E000E086E8EEF19F0C6
:1031FA00960E0E6E07EF19F00E2AD890123211327F
:10320A0010320F32000E0F14096E000E10140A6EDF
:10321A00000E11140B6EFE0E12140C6E09500A10D9
:10322A000B100C10D8A41CEF19F01EEF19F001EFC7
:10323A0019F02CEF19F00E2A010E0F26000E10229B
:10324A0011221222D8901232113210320F32000E8D
:10325A000F14096E000E10140A6E000E11140B6E74
:10326A00FF0E12140C6E09500A100B100C10D8A481
:10327A0041EF19F043EF19F020EF19F04BEF19F075
:10328A000E06D8900F3610361136123611BE50EF90
:10329A0019F052EF19F05AEF19F0020E0E6058EFBA
:1032AA0019F05AEF19F045EF19F00EB05FEF19F067
:1032BA0061EF19F062EF19F0119ED8900E320EC02C
:1032CA0009F00A6A0B6A0C6A09C00CF00B6A0A6AEE
:1032DA00096A09500F120A5010120B5011120C50A1
:1032EA0012120D50D8B47CEF19F07EEF19F086EF68
:1032FA0019F008BE85EF19F083EF19F086EF19F07F
:10330A00128E0FC005F010C006F011C007F012C0EF
:10331A0008F01200000E1A6E000E196E000E136EDF
:10332A00000E126E9BEF19F00C4A0D2A010E186E50
:10333A000CC0F6FF0DC0F7FFF86A0800F550200A26
:10334A00D8B4AAEF19F0ACEF19F0CAEF19F0F70EDA
:10335A000E6EFF0E0F6E0CC0F6FF0DC0F7FFF86A77
:10336A000800F550106E116A0E5010260F501122E7
:10337A00115009E1050E105CD8A0C6EF19F0C8EF8C
:10338A0019F0CAEF19F0000E186E18C014F0156A79
:10339A0014501510D8A4D4EF19F0D6EF19F099EFFC
:1033AA0019F0E0EF19F0000E136E010E126E0C4ABE
:1033BA000D2A17EF1AF00CC0F6FF0DC0F7FFF86AD6
:1033CA000800F5500E6E0F6A0F50000AD8B4F0EFDD
:1033DA0019F017EF1AF00E502B0AD8B4DCEF19F0D7
:1033EA00060AD8B4D8EF19F017EF1AF019C005F089
:1033FA001AC006F0000E086E0A0E076E13EC25F0CE
:10340A000CC0F6FF0DC0F7FFF86A0800F550055E1C
:10341A00000E065A300E0524196E000E06201A6E8A
:10342A00DCEF19F0D00E0E6EFF0E0F6E0CC0F6FF19
:10343A000DC0F7FFF86A0800F550106E116A0E50B9
:10344A0010260F50112211500AE10A0E105CD8A062
:10345A0031EF1AF034EF1AF0010E35EF1AF0000EC0
:10346A00166E176A16501710D8A43EEF1AF040EFDE
:10347A001AF0FBEF19F012501310D8A447EF1AF004
:10348A0049EF1AF057EF1AF019C00EF01AC00FF0F0
:10349A000E1E0F1E0E4A0F2A0EC00CF00FC00DF0A2
:1034AA005BEF1AF019C00CF01AC00DF0120059ECBB
:1034BA0023F00101785177C14BF04C6A4BC04CF0B4
:1034CA004B6A4B26000E4C224BC005F04CC006F04E
:1034DA00000E06BEFF0E076E086E010EB5EC18F060
:1034EA0005C04DF006C04EF007C04FF008C050F0BE
:1034FA00000E226EFF0E236E7F0E246E470E256E7F
:10350A00000E096E000E0A6EFA0E0B6E420E0C6E5B
:10351A004DC005F04EC006F04FC007F050C008F08D
:10352A00CAEC13F005C01EF006C01FF007C020F059
:10353A0008C021F0DFEC15F01EC037F01FC038F0CC
:10354A0020C039F021C03AF0000E3B6E000E3C6EEE
:10355A00C00E3D6EC00E3E6E6AEC11F037C04DF0E3
:10356A0038C04EF039C04FF03AC050F0000E1E6E0F
:10357A00000E1F6EC80E206E420E216E4DC022F044
:10358A004EC023F04FC024F050C025F077EC1BF05A
:10359A00D8B0D2EF1AF0D4EF1AF0DCEF1AF0000E1E
:1035AA004D6E000E4E6EC80E4F6E420E506E50BEDD
:1035BA00E3EF1AF0E1EF1AF0EBEF1AF0000E4D6E9E
:1035CA00000E4E6E000E4F6E000E506E4DC047F04C
:1035DA004EC048F04FC049F050C04AF012000734BC
:1035EA0008340E6E0E50D8A4FDEF1AF0FFEF1AF051
:1035FA0009EF1BF0000E056E000E066E000E076E38
:10360A00000E086E76EF1BF005C009F006C00AF03E
:10361A0007C00BF008C00CF0200E19EF1BF0D89071
:10362A000C320B320A320932E82E14EF1BF0095021
:10363A000D6E078EFF0E0516FF0E0616FF0E0716F5
:10364A00000E0816960E0E5E0EBE30EF1BF02EEF21
:10365A001BF046EF1BF00E50800A970FD8B038EFD8
:10366A001BF03AEF1BF03CEF1BF0FFEF1AF0D8907B
:10367A0008320732063205320E3E3CEF1BF05EEF8F
:10368A001BF01F0E0E644CEF1BF04EEF1BF056EFB3
:10369A001BF0FFEF1AF0D8900536063607360836C3
:1036AA000E060E50D8A45CEF1BF05EEF1BF050EF35
:1036BA001BF00D50D8B464EF1BF066EF1BF06EEFF1
:1036CA001BF0081E071E061E056C000E06220722A6
:1036DA00082205C005F006C006F007C007F008C0BA
:1036EA0008F01200000E1E14266E000E1F14276E1C
:1036FA00800E2014286E7F0E2114296E2650271062
:10370A0028102910D8A48CEF1BF08EEF1BF096EF2F
:10371A001BF0000E1E6E000E1F6E000E206E000EB5
:10372A00216E000E2214266E000E2314276E800EC0
:10373A002414286E7F0E2514296E2650271028106F
:10374A002910D8A4ABEF1BF0ADEF1BF0B5EF1BF0BF
:10375A00000E226E000E236E000E246E000E256EE1
:10376A0021AEBAEF1BF0BCEF1BF0C5EF1BF01E6CCD
:10377A001F1ED8B01F2A201ED8B0202A800E21561C
:10378A0025AECAEF1BF0CCEF1BF0D5EF1BF0226C75
:10379A00231ED8B0232A241ED8B0242A800E2556E8
:1037AA00000E1E1A000E1F1A000E201A800E211A71
:1037BA00000E221A000E231A000E241A800E251A51
:1037CA0022501E5C23501F5824502058255021583F
:1037DA00D8B0F2EF1BF0F4EF1BF0F7EF1BF0D89024
:1037EA00F8EF1BF0D8801200E1C00FF0E2C010F031
:1037FA00E3C011F0E4C012F005C00FF006C010F0EB
:10380A0007C011F008C012F00FC009F010C00AF08A
:10381A0011C00BF012C00CF0180E19EF1CF0D89062
:10382A000C320B320A320932E82E14EF1CF009501E
:10383A000D6E0E6A0D500E10D8A426EF1CF028EF5C
:10384A001CF048EF1CF0D8900F34096E10340A6E41
:10385A0011340B6E12340C6E09500A100B100C1036
:10386A00D8A43AEF1CF03CEF1CF042EF1CF0000E1B
:10387A00066E020E056E77EF1CF0000E066E030E42
:10388A00056E77EF1CF00D280E10D8A44FEF1CF030
:10389A0051EF1CF073EF1CF00FC009F010C00AF0D2
:1038AA0011C00BF012C00CF0090ED89009360A3676
:1038BA000B360C36E82E5AEF1CF009500A100B1082
:1038CA000C10D8B46BEF1CF06EEF1CF0010E6FEF0A
:1038DA001CF0000E056E066A77EF1CF0000E066EED
:1038EA00040E056E120005C00CF006C00DF007C0EC
:1038FA000EF008C00FF00906D8A00A06092806E14A
:10390A000A28D8A48BEF1CF08DEF1CF09AEF1CF05C
:10391A00000E066E000E056EE5EF1CF00C4A0D2A2D
:10392A000E4A0F2A0906D8A00A060CC0D9FF0DC0F4
:10393A00DAFFDF50D8B4A4EF1CF0A6EF1CF0D3EFE7
:10394A001CF00EC0F6FF0FC0F7FFF86A0800F5502A
:10395A000009D8B4B3EF1CF0B5EF1CF0D3EF1CF09C
:10396A0009500A10D8B4BCEF1CF0BEEF1CF0D3EF1C
:10397A001CF00CC0D9FF0DC0DAFFDF500B6E0EC071
:10398A00F6FF0FC0F7FFF86A0800F5500B18D8B415
:10399A00D1EF1CF0D3EF1CF093EF1CF00CC0D9FF51
:1039AA000DC0DAFFDF500B6E0EC0F6FF0FC0F7FF37
:1039BA00F86A0800F5500B5C056E066AD8A0060680
:1039CA00120059EC23F00101755174C14BF04C6A95
:1039DA004BC04CF04B6A4B26000E4C224BC005F0F4
:1039EA004CC006F0000E06BEFF0E076E086E010EF2
:1039FA00B5EC18F005C04DF006C04EF007C04FF008
:103A0A0008C050F0000E226EFF0E236E7F0E246E49
:103A1A00470E256E000E096E000E0A6E2F0E0B6EF3
:103A2A00430E0C6E4DC005F04EC006F04FC007F0B5
:103A3A0050C008F0CAEC13F005C01EF006C01FF013
:103A4A0007C020F008C021F0DFEC15F01EC037F0E7
:103A5A001FC038F020C039F021C03AF0000E3B6E8A
:103A6A00000E3C6E340E3D6EC20E3E6E6AEC11F0D4
:103A7A0037C04DF038C04EF039C04FF03AC050F060
:103A8A004DC047F04EC048F04FC049F050C04AF010
:103A9A0012000001F6A154EF1DF056EF1DF060EF81
:103AAA001DF019C010F01AC011F017C012F018C09A
:103ABA0013F037EC23F01CBE65EF1DF067EF1DF025
:103ACA006DEF1DF01BC020F01CC021F071EF1DF03E
:103ADA00000E216E000E206E000E1F6E000E1E6E6E
:103AEA0083EF1DF0000E086E200E076E17C009F056
:103AFA0018C00AF02BEC20F01E4A1F2A20501E5C28
:103B0A001F50800A1D6E2150800A1D58D8A090EFC0
:103B1A001DF092EF1DF077EF1DF00001F6B198EF5E
:103B2A001DF09AEF1DF0A4EF1DF019C010F01AC095
:103B3A0011F017C012F018C013F037EC23F019C0B7
:103B4A0005F01AC006F032EC24F020500524176E56
:103B5A0021500620186E1200000E0A6E08BEBAEF37
:103B6A001DF0B8EF1DF0C0EF1DF0076C081ED8B0AD
:103B7A00082A010E0A6E06BEC7EF1DF0C5EF1DF03A
:103B8A00CDEF1DF0056C061ED8B0062A010E0A1AE2
:103B9A00000E0C6E000E0B6E07500810D8B4D8EF4A
:103BAA001DF0DAEF1DF002EF1EF0010E096EE2EFD2
:103BBA001DF0D89007360836092A08AEE7EF1DF03F
:103BCA00E9EF1DF0DEEF1DF0D8900B360C360750EA
:103BDA00055C08500658D8A0F5EF1DF0F7EF1DF068
:103BEA00FCEF1DF00750055E0850065A0B80D8906E
:103BFA0008320732092EE9EF1DF00A50D8B408EF4F
:103C0A001EF00AEF1EF00EEF1EF00B6C0C1ED8B061
:103C1A000C2A0BC005F00CC006F0120085EC25F04A
:103C2A000009D8B41BEF1EF01DEF1EF058EF1EF06E
:103C3A002BEF1EF0FCEC25F074EF1EF0F8EC25F0EB
:103C4A0074EF1EF0F0EC25F074EF1EF012C10EF0C6
:103C5A0013C10FF002D83CEF1EF00500FA6E010105
:103C6A000651FD6E0751FE6EFF6AFA501200106E81
:103C7A00116A1150000AD8B445EF1EF027EF1EF062
:103C8A001050010AD8B427EF1EF0030AD8B41FEF68
:103C9A001EF0010AD8B423EF1EF0070AD8B427EFA2
:103CAA001EF027EF1EF0010123911DC1D9FF1EC18D
:103CBA00DAFF1D4B1E2BDF5000EC26F001011F0717
:103CCA00D8A020071F512011D8A46EEF1EF070EF64
:103CDA001EF073EF1EF0060E74EF1EF0030E1200B4
:103CEA00C50E5724D96EDA6A000EDA22000EDF6E8C
:103CFA00ABA482EF1EF084EF1EF099EF1EF0C50E02
:103D0A005724D96EDA6A000EDA220001DF8202D85D
:103D1A0099EF1EF00500FA6E01018251FD6E835182
:103D2A00FE6EFF6AFA501200ABA29EEF1EF0A0EFE1
:103D3A001EF0B5EF1EF0C50E5724D96EDA6A000ED2
:103D4A00DA220001DF8402D8B5EF1EF00500FA6E10
:103D5A0001018051FD6E8151FE6EFF6AFA50120018
:103D6A00C50E5724D96EDA6A000EDA22DF50D8B4AB
:103D7A00C1EF1EF0C3EF1EF0D2EF1EF002D8D0EF53
:103D8A001EF00500FA6E01017E51FD6E7F51FE6E36
:103D9A00FF6AFA501200D4EF1EF0D3EC24F012009E
:103DAA00000E0A6E06BEDEEF1EF0DCEF1EF0E4EF38
:103DBA001EF0056C061ED8B0062A010E0A6E08BE51
:103DCA00EBEF1EF0E9EF1EF0EFEF1EF0076C081E96
:103DDA00D8B0082A07500810D8B4F6EF1EF0F8EF4A
:103DEA001EF01CEF1FF0010E096E00EF1FF0D890B5
:103DFA0007360836092A08AE05EF1FF007EF1FF04D
:103E0A00FCEF1EF00750055C08500658D8A010EFCA
:103E1A001FF012EF1FF016EF1FF00750055E085053
:103E2A00065AD89008320732092E07EF1FF00A50B7
:103E3A00D8B422EF1FF024EF1FF028EF1FF0056C13
:103E4A00061ED8B0062A05C005F006C006F0120004
:103E5A0070EC25F0060E0101896F130E886FAD0E06
:103E6A00E82EFED7882FFCD7892FFAD700F000F06A
:103E7A00F28EF28CE6EC1CF047C0E9F048C0EAF09A
:103E8A0049C0EBF04AC0ECF05CEC1AF047C0E5F030
:103E9A0048C0E6F049C0E7F04AC0E8F03E0E00012B
:103EAA00BF6F100EC06FE9C0C1F0EAC0C2F0EBC02C
:103EBA00C3F0ECC0C4F0FEEC24F0210E0001BF6F89
:103ECA00100EC06FE5C0C1F0E6C0C2F0E7C0C3F093
:103EDA00E8C0C4F0FEEC24F0060E0101896F130E4F
:103EEA00886FAD0EE82EFED7882FFCD7892FFAD718
:103EFA0000F000F03FEF1FF058EF00F0000E05143D
:103F0A000D6E000E06140E6E800E07140F6E7F0ED5
:103F1A000814106E0D500E100F101010D8A498EF40
:103F2A001FF09AEF1FF0A2EF1FF0000E056E000EB1
:103F3A00066E000E076E000E086E000E09140D6E56
:103F4A00000E0A140E6E800E0B140F6E7F0E0C14E8
:103F5A00106E0D500E100F101010D8A4B7EF1FF0EE
:103F6A00B9EF1FF0C1EF1FF0000E096E000E0A6EC6
:103F7A00000E0B6E000E0C6E095005180FE10A5068
:103F8A0006180CE10B50071809E10C500818D8B4B0
:103F9A00D1EF1FF0D3EF1FF0D6EF1FF0D890D7EF75
:103FAA001FF0D880120014EC26F01DC1D9FF1EC1E3
:103FBA00DAFFDF6E01011D4B1E2B1F07D8A0200759
:103FCA001F512011D8B4ECEF1FF0EEEF1FF0F3EF02
:103FDA001FF004EC26F0050E2AEF20F02387FEEFEF
:103FEA001FF0E4EC25F02AEF20F0E8EC25F02AEFA8
:103FFA0020F00CC10EF00DC10FF002D80EEF20F028
:10400A000500FA6E0051FD6E0151FE6EFF6AFA500C
:10401A001200106E116A1150000AD8B417EF20F07E
:10402A00FAEF1FF01050010AD8B4FAEF1FF0030A92
:10403A00D8B4F6EF1FF0010AD8B4F6EF1FF0070A5A
:10404A00D8B4FAEF1FF0FAEF1FF0120009500A1065
:10405A00D8B432EF20F034EF20F03DEF20F00950D1
:10406A000A10D8A43BEF20F03DEF20F042EF20F0F9
:10407A000750B9EC25F075EF20F020EE04F0095056
:10408A00D9260A50DA22DE50DE10D8B44FEF20F0DB
:10409A0051EF20F06CEF20F020EE04F00950D92601
:1040AA000A50DA2210EE02F00950E1260A50E22202
:1040BA00DE50E65CE650800A0F6EDE50800A0F582A
:1040CA00D8B06AEF20F06CEF20F075EF20F020EE08
:1040DA0002F00950D9260A50DA22DE2A000EDD2221
:1040EA001200056E010E066E010123B57FEF20F066
:1040FA0081EF20F0BBEF20F005C01CF1239323854C
:10410A0023910E0E216F010E1B6FF40E1A6F238777
:10411A00340E006F4C0E016F000E0C6F000E0D6F07
:10412A00340E026F4C0E036F000E0E6F000E0F6FEF
:10413A00340E046F4C0E056F000E106F000E116FD7
:10414A00340E066F4C0E076F000E126F000E136FBF
:10415A00300E086F4C0E096F000E146F000E156FAB
:10416A0026EC26F038EC25F0000E066E06501200FA
:10417A0001012387CEEF20F0F4EC25F0FAEF20F0CE
:10418A0012EC26F0030EFAEF20F0F0EC25F0FAEF2D
:10419A0020F00CC10EF00DC10FF002D8DEEF20F0B6
:1041AA000500FA6E0051FD6E0151FE6EFF6AFA506B
:1041BA001200106E116A1150000AD8B4E7EF20F00D
:1041CA00CAEF20F01050010AD8B4CAEF20F0030A4F
:1041DA00D8B4C1EF20F0010AD8B4C1EF20F0070A21
:1041EA00D8B4C5EF20F0CAEF20F01200096E0550CE
:1041FA000610D8B403EF21F005EF21F01FEF21F0EC
:10420A000950020D000EF324D96E010EF420DA6E65
:10421A0005C0DEFF06C0DDFF0950020D0C0EF324B7
:10422A00D96E010EF420DA6E07C0DEFF08C0DDFF8A
:10423A0037EF21F00950020D000EF324D96E010E5A
:10424A00F420DA6E340EDE6E4C0EDD6E0950020D6D
:10425A000C0EF324D96E010EF420DA6E000EDE6E17
:10426A00000EDD6E12009D9AEA0E056E3C0E066E79
:10427A00C8EC25F09D983A0E056E470E066EC3EC03
:10428A0025F0080EB86E900EAB6E240EAC6ECF0EF3
:10429A00AF6E000EB06E500E056E4C0E066ED2EC6E
:1042AA0025F0140E056E4C0E066ECDEC25F01A0E96
:1042BA00056E4C0E066ED7EC25F0000E0001F86F65
:1042CA00000E596E000E586E080EFE6F000E576EE5
:1042DA00000E566E000EF96F9D8A120026EC26F02B
:1042EA00010123A17BEF21F07DEF21F08AEF21F07C
:1042FA0085EC25F00009D8B485EF21F087EF21F08D
:10430A008AEF21F00F0E0101216F01012151020DE7
:10431A00010EF324F66E100EF420F76EF86A000E02
:10432A00F8220900F5CF12F00900F5CF13F002D8F0
:10433A00A8EF21F00500FA6E1250FD6E1350FE6EC2
:10434A00FF6AFA5012000101216F12000101239144
:10435A00020E226FB9EF21F0F4EC25F0DDEF21F027
:10436A00F0EC25F0DDEF21F010C10EF011C10FF0D5
:10437A0002D8C9EF21F00500FA6E0451FD6E05510D
:10438A00FE6EFF6AFA501200106E116A1150000A8E
:10439A00D8B4D2EF21F0B5EF21F01050020AD8B408
:1043AA00B1EF21F0010AD8B4B1EF21F0B5EF21F055
:1043BA001200B9C0BDF0BAC0BEF0000E0001F16F24
:1043CA00000EF06FFCEF21F0B7C09DF0B8C09EF070
:1043DA00BD0E9F6F000EA06FBBC0A1F0BCC0A2F0C3
:1043EA0034EC0EF000019D51F0279E51F123BDC01F
:1043FA00F6FFBEC0F7FFF86A0800F5500009D8A416
:10440A0009EF22F00BEF22F0E9EF21F0F0C0B7F04C
:10441A00F1C0B8F01200BF0E0D6EFF0E0E6E0BC08B
:10442A000FF00CC010F00D500F260E501022105035
:10443A000AE11A0E0F5CD8A025EF22F028EF22F02D
:10444A00010E29EF22F0000E116E126A115012109D
:10445A00D8B432EF22F034EF22F03BEF22F0200EF4
:10446A000B100B6E0C500C6E3FEF22F00BC00BF0D2
:10447A000CC00CF0120007C00BF008C00CF005C00D
:10448A000DF006C00EF00B50096E0C500A6E0B4A66
:10449A000C2A09C0F6FF0AC0F7FF000EF86E0DC01D
:1044AA00D9FF0EC0DAFF0D4A0E2A0F0EF76403D0A9
:1044BA000800F55005D0F6CFE9FFF7CFEAFFEF5035
:1044CA00DF6EDF50D8A46CEF22F06EEF22F048EFD7
:1044DA0022F012001A6E1A5076EC20F00009D8B4B5
:1044EA0079EF22F07BEF22F070EF22F016C005F090
:1044FA0017C006F018C007F019C008F026EC25F01E
:10450A00000E0A6E000E0B6E000E0C6E000E0D6E83
:10451A0058EC25F0DCEC25F0BDEC24F0E806D8B424
:10452A0099EF22F09BEF22F091EF22F01200056E34
:10453A000001FE51D8B4A4EF22F0A6EF22F09DEFBD
:10454A0022F09DB8ABEF22F0ADEF22F0B1EF22F0EE
:10455A0005C0ADFFC6EF22F09D98D50E5924D96E3D
:10456A00DA6A000EDA2205C0DFFF592A070E5964FB
:10457A00C1EF22F0C3EF22F0C5EF22F0000E596E10
:10458A00FE079D881200010E0B6E200E05180610FC
:10459A00D8B4D2EF22F0D4EF22F0EDEF22F0F70EEA
:1045AA00076EFF0E086E05C009F006C00AF0075034
:1045BA00092608500A220A5009E1050E095CD8A00A
:1045CA00E9EF22F0EBEF22F0EDEF22F0000E0B6E96
:1045DA000BC005F0066A1200000E4B1A000E4C1AA8
:1045EA00000E4D1A800E4E1A47C037F048C038F0F8
:1045FA0049C039F04AC03AF04BC03BF04CC03CF0DD
:10460A004DC03DF04EC03EF06AEC11F037C047F0A5
:10461A0038C048F039C049F03AC04AF012001A6E60
:10462A001A5076EC20F00009D8B41EEF23F020EFE0
:10463A0023F015EF23F016C005F017C006F018C0D6
:10464A0007F019C008F026EC25F0E0EC25F0BDECE7
:10465A0024F0E806D8B434EF23F036EF23F02CEF39
:10466A0023F01200000E166E000E156E48EF23F0AE
:10467A0014C007F0086A12C009F013C00AF02BEC44
:10468A0020F0154A162A15501024D96E16501120FA
:10469A00DA6EDF50146E1450D8A456EF23F058EF98
:1046AA0023F03DEF23F01200FD0E1C6E1C0E166E59
:1046BA00000E176E000E196E010E186E440E6FEC86
:1046CA0022F01A0E1B6EF80EE82EFED71B2EFCD710
:1046DA0000F000F0740E166E010E176E000E196EC1
:1046EA00060E186E440E14EC23F01200146E010E1E
:1046FA00156E010123B384EF23F086EF23F09BEFBD
:10470A0023F02383000E156E1450D8B48FEF23F0D4
:10471A0091EF23F095EF23F0010E216F97EF23F02D
:10472A00020E216F20EC26F049EC25F015501200FC
:10473A00080E0001FE61A4EF23F0A6EF23F0BCEF00
:10474A0023F0D50E5824D96EDA6A000EDA22DF5029
:10475A00AD6E582A070E5864B5EF23F0B7EF23F071
:10476A00B9EF23F0000E586EFE2BBDEF23F09D9893
:10477A00120020EE02F00E50D9260F50DA22DECFB8
:10478A0005F0DDCF06F00EC0D9FF0FC0DAFFDECF8D
:10479A0007F0DDCF08F026EC25F0000E0A6E000EB9
:1047AA000B6E000E0C6E000E0D6E64EC25F0020E00
:1047BA001200BF0E076EFF0E086E05C009F006C094
:1047CA000AF00750092608500A220A500AE11A0E6E
:1047DA00095CD8A0F3EF23F0F6EF23F0010EF7EF10
:1047EA0023F0000E056E066A120005500610071027
:1047FA000810D8B403EF24F005EF24F00DEF24F0ED
:10480A00000E051A000E061A000E071A800E081A64
:10481A0005C005F006C006F007C007F008C008F09A
:10482A001200D00E076EFF0E086E05C009F006C012
:10483A000AF00750092608500A220A500AE10A0E0D
:10484A00095CD8A02BEF24F02EEF24F0010E2FEFF5
:10485A0024F0000E056E066A120005C007F006C0B5
:10486A0008F03AEF24F0054A062A05C0D9FF06C027
:10487A00DAFFDF50D8A444EF24F046EF24F038EFF3
:10488A0024F00750055C056E08500658066E1200A3
:10489A00000E8D6E000E8C6E000E896E000E8A6EF2
:1048AA00000E8B6E070E966E92689368BF0E946E1A
:1048BA0095687E681F0E7F6E000E7C6EF18E120068
:1048CA000EC005F00FC006F0000E086E010E076E4E
:1048DA0026EC25F0000E0A6E000E0B6E000E0C6E12
:1048EA00000E0D6E64EC25F0040E12000EC005F0E9
:1048FA000FC006F0000E086E020E076E26EC25F0B9
:10490A00000E0A6E000E0B6E000E0C6E000E0D6E7F
:10491A0064EC25F0020E12000EC005F00FC006F07E
:10492A00000E086E010E076E26EC25F0000E0A6EC8
:10493A00000E0B6E000E0C6E000E0D6E64EC25F070
:10494A00020E12000EC005F00FC006F0000E086E2F
:10495A00020E076E26EC25F0000E0A6E000E0B6E94
:10496A00000E0C6E000E0D6E64EC25F0040E1200A3
:10497A00010E056E010123B3C5EF24F0C7EF24F041
:10498A00D1EF24F023951C6926EC26F022EC26F0C0
:10499A0024EC26F022C105F005501200CD0E572452
:1049AA00D96EDA6A000EDA22AECFDFFF572A070E77
:1049BA005764E2EF24F0E4EF24F0E6EF24F0000E6F
:1049CA00576E0001F92B120001EE00F07E0EEE6A1E
:1049DA00E806FDE100EEC5F0350EEE6AE806FDE1F7
:1049EA00596A586A576A566A5A905A9200012DEFC4
:1049FA001FF0C10E0101866F000E876F000E0001C5
:104A0A00B76F000EB86FBFC0B9F0C0C0BAF0860E5B
:104A1A00BB6F010EBC6FDEEC21F0120005500702DD
:104A2A00F3CF09F0F4CF0AF005500802F3500A2632
:104A3A0006500702F3500A2609C005F00AC006F01C
:104A4A001200010123A72CEF25F02EEF25F037EFF6
:104A5A0025F005C01DF106C01EF107C01FF108C0F0
:104A6A0020F123971200C6BA3DEF25F03FEF25F05B
:104A7A0048EF25F0000EC76E080EC66E000EC56E12
:104A8A00130EC86EC68A12004FEF25F08FEC25F080
:104A9A0073EC21F0010123B355EF25F057EF25F010
:104AAA004BEF25F012000AC005F00BC006F00CC04F
:104ABA0007F00DC008F0020EFBEC20F012000AC04D
:104ACA0005F00BC006F00CC007F00DC008F0000E90
:104ADA00FBEC20F0120010EC26F07BEC25F04DECFC
:104AEA0024F0BEEC25F038EC21F01200000EC76E5F
:104AFA00080EC66E000EC56E130EC86EC69A120058
:104B0A00C5BC8AEF25F08DEF25F0010E8EEF25F05A
:104B1A00000E12009EA694EF25F096EF25F08FEF77
:104B2A0025F01200010123811C511C2500EC26F0FE
:104B3A00030E120001012381D8801C3500EC26F0F7
:104B4A00050E120001012393000E226F0E0E1200B1
:104B5A000101239116EC26F0040E120001012393A1
:104B6A00000E226F0E0E1200066E06509CEC22F00A
:104B7A001200600ED36E000E9B6E120005C0FCF090
:104B8A0006C0FDF0120005C0FAF006C0FBF01200E4
:104B9A0005C080F106C081F1120005C082F106C08D
:104BAA0083F1120005C07EF106C07FF11200000EEB
:104BBA007BEC23F01200010E7BEC23F0120007ECD1
:104BCA0026F0090E120007EC26F00A0E120004EC79
:104BDA0026F0050E12001CEC26F0000E12001EEC48
:104BEA0026F0010E12001EEC26F0020E12001EEC38
:104BFA0026F0010E1200056E05C0C9FF1200C59A03
:104C0A00C5881200C58AC5881200AB98AB88120005
:104C1A00D3EC24F01200D09E12009E861200C950D6
:104C2A001200C5861200050E1200010E1200C5847C
:104C3A001200C5821200C58012009D961200C69A03
:084C4A0012009E9612001200F8
:020000040020DA
:08000000FFFFFFFFFFFFFFFF00
:020000040030CA
:0E000000FF081F1EFF0B81FF0FC00FE00F4017
:00000001FF
