:0400000058EF00F0C5
:100008005A82FACF01F0FBCF02F0D9CF03F0DACF52
:1000180004F0F2AC12EF00F014EF00F04EEF00F035
:100028009DA819EF00F01BEF00F031EF00F09EA83B
:1000380020EF00F022EF00F031EF00F002D82FEFB0
:1000480000F00500FA6E0001FC51FD6EFD51FE6ED8
:10005800FF6AFA5012004EEF00F09DAA36EF00F04A
:1000680038EF00F04EEF00F09EAA3DEF00F03FEFB2
:1000780000F04EEF00F002D84CEF00F00500FA6EE9
:100088000001FA51FD6EFB51FE6EFF6AFA50120034
:100098004EEF00F004C0DAFF03C0D9FF02C0FBFF37
:0C00A80001C0FAFF5A92110034EF25F05D
:1010000000FA4BD24BC24BBE3C4640EE4B10428CDA
:101010004C844C7C4C744C6C4C644C5C4CE24BEC03
:10102000434C75667466657563687469676B65695A
:1010300074203D2025342E326625250D0A00546586
:101040006D70657261747572203D2025302E326698
:101050004320202000494E46004E414E00696E66F6
:09106000006E616E006C66000078
:10106A00000E0001806F000E7F6F51C091F052C0D8
:10107A0092F053C093F054C094F094BF49EF08F033
:10108A0047EF08F05FEF08F0000E806F010E7F6FE8
:10109A0091C005F092C006F093C007F094C008F022
:1010AA0045EC24F005C091F006C092F007C093F019
:1010BA0008C094F0000E0001986F000E976FF0C000
:1010CA0083F0F1C084F07F518011D8A46FEF08F04B
:1010DA0071EF08F078EF08F0F4A576EF08F078EFF2
:1010EA0008F092EF08F07F518011D8A47FEF08F042
:1010FA0081EF08F087EF08F0000E666F2B0E656F20
:10110A008BEF08F0000E666F2D0E656F65C024F137
:10111A00974B982B8307D8A0840791C005F092C0FB
:10112A0006F093C007F094C008F049EC1CF00504DF
:10113A000610D8A4A3EF08F0A5EF08F0FCEF08F01A
:10114A00BF0E0001606FFF0E616F5550626F636BD7
:10115A00605162276151632363510AE11A0E625D8D
:10116A00D8A0BAEF08F0BDEF08F0010EBEEF08F004
:10117A00000E676F686B67516811D8B4C7EF08F043
:10118A00C9EF08F0D7EF08F0240E9725056E010E77
:10119A009821066E550E076E100E086E8BEC22F023
:1011AA00E3EF08F0240E9725056E010E9821066ECE
:1011BA005D0E076E100E086E8BEC22F00001FD0E1C
:1011CA008327FF0E84234FC017F050C018F0240E57
:1011DA00196E010E1A6E83C01BF084C01CF09AECC3
:1011EA001DF017C04FF018C050F087EF0EF091C0F5
:1011FA0005F092C006F093C007F094C008F049ECDD
:10120A001CF005500610D8A40DEF09F00FEF09F0F5
:10121A0066EF09F0BF0E0001606FFF0E616F555057
:10122A00626F636B605162276151632363510AE104
:10123A001A0E625DD8A024EF09F027EF09F0010E1B
:10124A0028EF09F0000E696F6A6B69516A11D8B408
:10125A0031EF09F033EF09F041EF09F0240E972539
:10126A00056E010E9821066E590E076E100E086E55
:10127A008BEC22F04DEF09F0240E9725056E010E36
:10128A009821066E610E076E100E086E8BEC22F026
:10129A000001FD0E8327FF0E84234FC017F050C0B4
:1012AA0018F0240E196E010E1A6E83C01BF084C04A
:1012BA001CF09AEC1DF017C04FF018C050F087EFE1
:1012CA000EF0000E0001996F000E9A6F800E9B6F50
:1012DA003F0E9C6F000E966F000E956F91C005F041
:1012EA0092C006F093C007F094C008F0000E096E91
:1012FA00000E0A6E000E0B6E000E0C6ECEEC1FF086
:10130A00D8B08AEF09F08CEF09F00FEF0AF0ABEFD3
:10131A0009F099C005F09AC006F09BC007F09CC07E
:10132A0008F0000E096E000E0A6E200E0B6E410EBA
:10133A000C6E1EEC14F005C099F006C09AF007C0B6
:10134A009BF008C09CF00001954B962B91C01EF0B3
:10135A0092C01FF093C020F094C021F0000E096ED5
:10136A00000E0A6E200E0B6E410E0C6E99C005F02F
:10137A009AC006F09BC007F09CC008F01EEC14F05F
:10138A0005C022F006C023F007C024F008C025F0EB
:10139A00C7EC1BF0D8B0D4EF09F0D6EF09F08EEF06
:1013AA0009F0F6EF09F099C01EF09AC01FF09BC031
:1013BA0020F09CC021F0000E226E000E236E200E3B
:1013CA00246E410E256E33EC16F01EC099F01FC034
:1013DA009AF020C09BF021C09CF000019507D8A08C
:1013EA00960791C01EF092C01FF093C020F094C0DF
:1013FA0021F099C022F09AC023F09BC024F09CC02F
:10140A0025F0C7EC1BF0D8A00DEF0AF00FEF0AF099
:10141A00D8EF09F055C00BF00C6A5BEC22F00B50C8
:10142A000001866F86C085F0670E8619D8A420EF62
:10143A000AF022EF0AF048EF0AF0F251F311D8A4A9
:10144A0029EF0AF02BEF0AF02FEF0AF0000EF36FE4
:10145A00010EF26FF3BF3CEF0AF0F35106E1F20519
:10146A00D8B03AEF0AF03CEF0AF042EF0AF0000E69
:10147A00826F060E816F51EF0AF0F2C081F0F3C05D
:10148A0082F051EF0AF0F3BF4DEF0AF04FEF0AF086
:10149A003CEF0AF042EF0AF0670E8619D8A458EF1B
:1014AA000AF05AEF0AF089EF0AF096AF68EF0AF0ED
:1014BA00FC0E955DFF0E9659D8A066EF0AF068EF0C
:1014CA000AF087EF0AF0FF0E606FFF0E616F81C0AE
:1014DA0062F082C063F060516227615163239551C3
:1014EA00625D6351800A646F9651800A6459D8A07C
:1014FA0081EF0AF083EF0AF087EF0AF0660E856F34
:10150A0089EF0AF0650E856F81C077F082C078F0A6
:10151A00670E8619D8A494EF0AF096EF0AF0A6EFA0
:10152A000AF0660E8519D8A49DEF0AF09FEF0AF01B
:10153A00A8EF0AF096BFA6EF0AF0A4EF0AF0A8EF08
:10154A000AF0774B782B660E8519D8A4AFEF0AF00C
:10155A00B1EF0AF0D1EF0AF096BFB8EF0AF0B6EF92
:10156A000AF0C4EF0AF0000E996F000E9A6F800E0F
:10157A009B6F3F0E9C6F000E966F000E956F670E65
:10158A008619D8B4CBEF0AF0CDEF0AF0D1EF0AF002
:10159A009551772796517823000E906F000E8F6F22
:1015AA0091C087F092C088F093C089F094C08AF005
:1015BA0099C079F09AC07AF09BC07BF09CC07CF00D
:1015CA0062EF0BF087C01EF088C01FF089C020F0C0
:1015DA008AC021F099C022F09AC023F09BC024F05F
:1015EA009CC025F033EC16F01EC037F01FC038F04F
:1015FA0020C039F021C03AF000EC18F037C08BF067
:10160A0038C08CF039C08DF03AC08EF08BC005F02E
:10161A008CC006F08DC007F08EC008F044EC1BF0B9
:10162A0005C07DF006C07EF087C047F088C048F04C
:10163A0089C049F08AC04AF099C009F09AC00AF0F4
:10164A009BC00BF09CC00CF08BC005F08CC006F060
:10165A008DC007F08EC008F01EEC14F005C04BF0E8
:10166A0006C04CF007C04DF008C04EF03CEC23F029
:10167A0047C087F048C088F049C089F04AC08AF05C
:10168A0099C01EF09AC01FF09BC020F09CC021F0A8
:10169A00000E226E000E236E200E246E410E256E61
:1016AA0033EC16F01EC099F01FC09AF020C09BF0D0
:1016BA0021C09CF000018F4B902B77518F5D905188
:1016CA00800A606F7851800A6059D8A06FEF0BF0DA
:1016DA0071EF0BF0E7EF0AF099C005F09AC006F037
:1016EA009BC007F09CC008F0000E096E000E0A6E3F
:1016FA00A00E0B6E400E0C6E1EEC14F005C08BF0A3
:10170A0006C08CF007C08DF008C08EF087C01EF0AE
:10171A0088C01FF089C020F08AC021F08BC022F057
:10172A008CC023F08DC024F08EC025F0C7EC1BF0CE
:10173A00D8B0A2EF0BF0A4EF0BF0AFEF0BF0000E56
:10174A0000018B6F000E8C6F000E8D6F000E8E6F76
:10175A00D8EF0BF087C005F088C006F089C007F003
:10176A008AC008F08BC009F08CC00AF08DC00BF05B
:10177A008EC00CF0CEEC1FF0D8A0C6EF0BF0C8EF6D
:10178A000BF0D8EF0BF000017DB1CEEF0BF0D0EFEC
:10179A000BF0D8EF0BF0000E8B6F000E8C6F000E63
:1017AA008D6F000E8E6F91C037F092C038F093C0E3
:1017BA0039F094C03AF08BC03BF08CC03CF08DC03D
:1017CA003DF08EC03EF0BEEC11F037C087F038C055
:1017DA0088F039C089F03AC08AF087C01EF088C004
:1017EA001FF089C020F08AC021F0000E096E000E99
:1017FA000A6E200E0B6E410E0C6E79C005F07AC08F
:10180A0006F07BC007F07CC008F01EEC14F005C09F
:10181A0022F006C023F007C024F008C025F0C7EC68
:10182A001BF0D8A01BEF0CF01DEF0CF046EF0CF0EC
:10183A000001954B962B79C005F07AC006F07BC063
:10184A0007F07CC008F0000E096E000E0A6E200E2A
:10185A000B6E410E0C6E1EEC14F005C079F006C03A
:10186A007AF007C07BF008C07CF0660E000185198B
:10187A00D8A442EF0CF044EF0CF046EF0CF0774B93
:10188A00782B79C099F07AC09AF07BC09BF07CC023
:10189A009CF0650E00018519D8B456EF0CF058EF8C
:1018AA000CF05EEF0CF095C075F096C076F062EF22
:1018BA000CF0000E766F000E756F000E746F000E3E
:1018CA00736F000E726F000E716F000E906F000E34
:1018DA008F6F5DEF0DF087C01EF088C01FF089C0C2
:1018EA0020F08AC021F099C022F09AC023F09BC050
:1018FA0024F09CC025F033EC16F01EC037F01FC050
:10190A0038F020C039F021C03AF000EC18F037C0A6
:10191A008BF038C08CF039C08DF03AC08EF08BC095
:10192A0005F08CC006F08DC007F08EC008F044ECBC
:10193A001BF005C07DF006C07EF00001F4B9A8EFE7
:10194A000CF0AAEF0CF0C7EF0CF07D517E11D8A471
:10195A00B1EF0CF0B3EF0CF0C7EF0CF0670E86197D
:10196A00D8A4BAEF0CF0BCEF0CF0C7EF0CF076BFBE
:10197A00C3EF0CF0C1EF0CF0C7EF0CF0714B722BF8
:10198A0011EF0DF073517411D8A4CEEF0CF0D0EF13
:10199A000CF0FAEF0CF076BFD7EF0CF0D5EF0CF0A5
:1019AA00FAEF0CF0240E9725D96E010E9821DA6E03
:1019BA002E0EDF6E974B982B8307D8A08407000E54
:1019CA00746F010E736FFAEF0CF0240E9725D96E1F
:1019DA00010E9821DA6E300EDF6E974B982B830733
:1019EA00D8A084077107D8A0720771517211D8A4C0
:1019FA0001EF0DF003EF0DF0EAEF0CF0240E97253E
:101A0A00D96E010E9821DA6E7D51300FDF6E974B39
:101A1A00982B8307D8A0840787C047F088C048F06E
:101A2A0089C049F08AC04AF099C009F09AC00AF000
:101A3A009BC00BF09CC00CF08BC005F08CC006F06C
:101A4A008DC007F08EC008F01EEC14F005C04BF0F4
:101A5A0006C04CF007C04DF008C04EF03CEC23F035
:101A6A0047C087F048C088F049C089F04AC08AF068
:101A7A0099C01EF09AC01FF09BC020F09CC021F0B4
:101A8A00000E226E000E236E200E246E410E256E6D
:101A9A0033EC16F01EC099F01FC09AF020C09BF0DC
:101AAA0021C09CF000017507D8A076078F4B902BB8
:101ABA0077518F5D9051800A606F7851800A605922
:101ACA00D8B06AEF0DF06CEF0DF07AEF0DF098BF19
:101ADA0078EF0DF0985109E14B0E975DD8A078EF99
:101AEA000DF07AEF0DF070EF0CF073517411D8A469
:101AFA0081EF0DF083EF0DF094EF0DF0F4A988EF6C
:101B0A000DF08AEF0DF094EF0DF0240E9725D96EA3
:101B1A00010E9821DA6E2E0EDF6E974B982B240E4B
:101B2A009725D96E010E9821DA6E000EDF6E650ECA
:101B3A008519D8A4A3EF0DF0A5EF0DF075EF0EF0FF
:101B4A00000E906F4F0E8F6F240E8F25D96E010EE7
:101B5A009021DA6E000EDF6E000E806F000E7F6F2E
:101B6A0096BFBCEF0DF0BAEF0DF0C4EF0DF0000E0A
:101B7A00806F010E7F6F956D961FD8B0962B000E61
:101B8A00826F020E816FF5EF0DF08F07D8A09007D4
:101B9A00240E8F25D96E010E9021DA6E95C005F0BC
:101BAA0096C006F0000E086E0A0E076E20EC1FF0B3
:101BBA000550300FDF6E95C005F096C006F0000E96
:101BCA00086E0A0E076EFDEC1DF005C095F006C002
:101BDA0096F000018107D8A082078307D8A084075E
:101BEA0095519611D8A4FCEF0DF0FEEF0DF0CAEF57
:101BFA000DF082BF0BEF0EF0825106E18105D8B0DD
:101C0A0009EF0EF00BEF0EF0CAEF0DF08F07D8A018
:101C1A0090077F518011D8A415EF0EF017EF0EF040
:101C2A001DEF0EF0000E6C6F2B0E6B6F21EF0EF096
:101C3A00000E6C6F2D0E6B6F240E8F25D96E010E60
:101C4A009021DA6E6BC0DFFF8307D8A084078F0765
:101C5A00D8A09007BF0E606FFF0E616F5550626F7C
:101C6A00636B605162276151632363510AE11A0E63
:101C7A00625DD8A043EF0EF046EF0EF0010E47EF7B
:101C8A000EF0000E6F6F706B6F517011D8A450EF89
:101C9A000EF052EF0EF058EF0EF0000E6E6F650E5A
:101CAA006D6F5CEF0EF0000E6E6F450E6D6F240EB9
:101CBA008F25D96E010E9021DA6E6DC0DFFF830782
:101CCA00D8A08407240E9725056E010E9821066E6A
:101CDA00240E8F25076E010E9021086E8BEC22F0E0
:101CEA004FC017F050C018F0240E196E010E1A6E6C
:101CFA0083C01BF084C01CF09AEC1DF017C04FF093
:101D0A0018C050F012009FC0D9FFA0C0DAFFDECF82
:101D1A00F6FFDDCFF7FFF86A0800F550250AD8A4C8
:101D2A0099EF0EF09BEF0EF0A1EF11F09FC0D9FFD3
:101D3A00A0C0DAFFDE2A000EDD22000E0001F16FDC
:101D4A00000EF06FF0C0F4F0F1C0F5F0F269F3693B
:101D5A00000EA86F000EA76FFAEF0EF0F4819FC075
:101D6A00D9FFA0C0DAFFDE2A000EDD22FAEF0EF05C
:101D7A00F483B4EF0EF0F485B4EF0EF0F487B4EF09
:101D8A000EF0F489B4EF0EF0000EA86F010EA76FE3
:101D9A00FAEF0EF09FC0D9FFA0C0DAFFDECFF6FF40
:101DAA00DDCFF7FFF86A0800F550A36FA46BA451C2
:101DBA00000AD8B4E3EF0EF0C9EF0EF0A351200ADF
:101DCA00D8B4C3EF0EF0030AD8B4C6EF0EF0080A6F
:101DDA00D8B4C0EF0EF0060AD8B4B3EF0EF01D0A5D
:101DEA00D8B4BDEF0EF0C9EF0EF0A751A811D8B4C0
:101DFA0001EF0FF003EF0FF0CFEF0EF0F4A108EFB1
:101E0A000FF00AEF0FF00BEF0FF0F4939FC0D9FF1A
:101E1A00A0C0DAFFDECFF6FFDDCFF7FFF86A0800D1
:101E2A00F5502A0AD8A41CEF0FF01EEF0FF047EF67
:101E3A000FF09FC0D9FFA0C0DAFFDE2A000EDD2214
:101E4A00A1C0D9FFA2C0DAFFDFCFA3F0020EDE26BF
:101E5A00DFCFA4F0000EDD22A3C0D9FFA4C0DAFFB1
:101E6A00DECFF0F0DDCFF1F0F1BF40EF0FF03EEF43
:101E7A000FF08CEF0FF0F481F06DF11FD8B0F12B59
:101E8A008CEF0FF09FC0D9FFA0C0DAFFDECF0CF0B5
:101E9A00DDCF0DF0E3EC19F00CC0F0F00DC0F1F05D
:101EAA005EEF0FF09FC0D9FFA0C0DAFFDE2A000E56
:101EBA00DD22D00E0001A36FFF0EA46F9FC0D9FFD1
:101ECA00A0C0DAFFDECFF6FFDDCFF7FFF86A080021
:101EDA00F550A56FA66BA351A527A451A623A65119
:101EEA000AE10A0EA55DD8A07DEF0FF080EF0FF092
:101EFA00010E81EF0FF0000EA96FAA6BA951AA116A
:101F0A00D8A48AEF0FF08CEF0FF057EF0FF09FC0B5
:101F1A00D9FFA0C0DAFFDECFF6FFDDCFF7FFF86A00
:101F2A000800F5502E0AD8A49DEF0FF09FEF0FF08E
:101F3A001FEF10F0000EF36F000EF26F9FC0D9FF73
:101F4A00A0C0DAFFDE2A000EDD229FC0D9FFA0C0A2
:101F5A00DAFFDECFF6FFDDCFF7FFF86A0800F550AB
:101F6A002A0AD8A4BBEF0FF0BDEF0FF0DAEF0FF09B
:101F7A009FC0D9FFA0C0DAFFDE2A000EDD22A1C071
:101F8A00D9FFA2C0DAFFDFCFA3F0020EDE26DFCF31
:101F9A00A4F0000EDD22A3C0D9FFA4C0DAFFDECF71
:101FAA00F2F0DDCFF3F01FEF10F09FC0D9FFA0C011
:101FBA00DAFFDECF0CF0DDCF0DF0E3EC19F00CC048
:101FCA00F2F00DC0F3F0F1EF0FF09FC0D9FFA0C0FF
:101FDA00DAFFDE2A000EDD22D00E0001A36FFF0E0B
:101FEA00A46F9FC0D9FFA0C0DAFFDECFF6FFDDCF16
:101FFA00F7FFF86A0800F550A56FA66BA351A5274D
:10200A00A451A623A6510AE10A0EA55DD8A010EF95
:10201A0010F013EF10F0010E14EF10F0000EAB6F7A
:10202A00AC6BAB51AC11D8A41DEF10F01FEF10F040
:10203A00EAEF0FF09FC0D9FFA0C0DAFFDECFF6FFAC
:10204A00DDCFF7FFF86A0800F5500B6E0C6A5BECFF
:10205A0022F00B500001AF6FAF51D8B437EF10F038
:10206A0039EF10F075EF10F09FC0D9FFA0C0DAFF6A
:10207A00DECFA3F0DDCFA4F0010EA327000EA42328
:10208A00A3C0F6FFA4C0F7FFF86A0800F5500B6E6C
:10209A000C6A5BEC22F00B500001B06FB051D8B45F
:1020AA0059EF10F05BEF10F075EF10F09FC0D9FFF9
:1020BA00A0C0DAFFDECFA3F0DDCFA4F0020EA32783
:1020CA00000EA423A3C0F6FFA4C0F7FFF86A080015
:1020DA00F5500B6E0C6A5BEC22F00B500001B16FED
:1020EA00660EAF19D8A47CEF10F07EEF10F0BFEFA8
:1020FA0010F09FC0D9FFA0C0DAFFDECFF6FFDDCF18
:10210A00F7FFF86A0800F5CFB6F09FC0D9FFA0C064
:10211A00DAFFDE2A000EDD22A1C0D9FFA2C0DAFF53
:10212A00DFCFA3F0040EDE26DFCFA4F0000EDD22FF
:10213A00A3C0D9FFA4C0DAFFDECFB2F0DECFB3F07E
:10214A00DECFB4F0DECFB5F09DC04FF09EC050F0A8
:10215A00B2C051F0B3C052F0B4C053F0B5C054F09D
:10216A00B6C055F035EC08F04FC09DF050C09EF057
:10217A00BDEF11F0AF0E056E000E066E650E076E0E
:10218A00100E086E000E0A6E020E096EC8EC1CF0E4
:10219A0005500610D8A4D4EF10F0D6EF10F068EF6F
:1021AA0011F09FC0D9FFA0C0DAFFDECFA3F0DDCFC8
:1021BA00A4F0010E0001A327000EA423A3C0F6FF7A
:1021CA00A4C0F7FFF86A0800F5CFB6F0BF0EA36FF8
:1021DA00FF0EA46F9FC0D9FFA0C0DAFFDECFF6FFC3
:1021EA00DDCFF7FFF86A0800F550A56FA66BA3517B
:1021FA00A527A451A623A6510AE11A0EA55DD8A0C7
:10220A0009EF11F00CEF11F0010E0DEF11F0000EB5
:10221A00AD6FAE6BAD51AE11D8B416EF11F018EF29
:10222A0011F032EF11F0A1C0D9FFA2C0DAFFDFCF5F
:10223A00A3F0040EDE26DFCFA4F0000EDD22A3C039
:10224A00D9FFA4C0DAFFDECFB2F0DECFB3F0DECF23
:10225A00B4F0DECFB5F04AEF11F0A1C0D9FFA2C0A9
:10226A00DAFFDFCFA3F0040EDE26DFCFA4F0000EE4
:10227A00DD22A3C0D9FFA4C0DAFFDECFB2F0DECFE1
:10228A00B3F0DECFB4F0DECFB5F0020E9FC0D9FFB7
:10229A00A0C0DAFFDE26000EDD229DC04FF09EC0F0
:1022AA0050F0B2C051F0B3C052F0B4C053F0B5C050
:1022BA0054F0B6C055F035EC08F04FC09DF050C050
:1022CA009EF0BDEF11F09FC0D9FFA0C0DAFFDECFAC
:1022DA00F6FFDDCFF7FFF86A0800F550250AD8A403
:1022EA0079EF11F07BEF11F093EF11F09FC0D9FF56
:1022FA00A0C0DAFFDE2A000EDD22000E086E250ECF
:10230A00076E9DC009F09EC00AF076EC20F0000E20
:10231A0000019E6F010E9D6FBDEF11F09FC0D9FFA6
:10232A00A0C0DAFFDE2A000EDD22000E00019E6F39
:10233A00000E9D6FBDEF11F09FC0D9FFA0C0DAFF5C
:10234A00DECFF6FFDDCFF7FFF86A0800F550076E1B
:10235A00086A9DC009F09EC00AF076EC20F09FC082
:10236A00D9FFA0C0DAFFDE2A000EDD228CEF11F0C1
:10237A0012003A50800B436E3A503A24456E39AEF9
:10238A00C9EF11F0CBEF11F0CCEF11F045804550B9
:10239A00D8B4D2EF11F0D4EF11F0E9EF11F04528DB
:1023AA00D8A4DAEF11F0DCEF11F0E4EF11F0000E2F
:1023BA00376E000E386E000E396E000E3A6E398E88
:1023CA00000E3A6EF1EF11F0000E376E000E386E05
:1023DA00000E396E000E3A6E3E50800B446E43502A
:1023EA004418D8B4FBEF11F0FDEF11F0FEEF11F035
:1023FA00438C3E503E24446E3DAE06EF12F008EF89
:10240A0012F009EF12F044804450D8B40FEF12F0E2
:10241A0011EF12F026EF12F04428D8A417EF12F0A9
:10242A0019EF12F021EF12F0000E3B6E000E3C6E17
:10243A00000E3D6E000E3E6E3D8E000E3E6E2EEF7D
:10244A0012F0000E3B6E000E3C6E000E3D6E000E4A
:10245A003E6E4550445CD8B035EF12F037EF12F0BB
:10246A005EEF12F043AC3CEF12F03EEF12F040EF99
:10247A0012F0800E431A45C046F044C045F046C0EB
:10248A0044F037C046F03BC037F046C03BF038C096
:10249A0046F03CC038F046C03CF039C046F03DC07A
:1024AA0039F046C03DF03AC046F03EC03AF046C068
:1024BA003EF0000E466E455044C03FF0406A3F5E13
:1024CA00000E405A40BE73EF12F0405009E11A0E56
:1024DA003F5CD8A073EF12F075EF12F0ACEF12F078
:1024EA003750381039103A10D8A47EEF12F081EF25
:1024FA0012F0010E82EF12F0000E466E000E376ED9
:10250A00000E386E000E396E000E3A6E44C045F069
:10251A00B5EF12F046A094EF12F096EF12F09CEF8E
:10252A0012F0D89046300109466E9EEF12F0D8900C
:10253A00463237A0A3EF12F0A5EF12F0A6EF12F081
:10254A00468E3A343A32393238323732452A445092
:10255A00455CD8A0B3EF12F0B5EF12F08FEF12F08E
:10256A0043BCBAEF12F0BCEF12F0FCEF12F0455088
:10257A00D8A4C2EF12F0C4EF12F0CEEF12F0000EA0
:10258A00376E000E386E000E396E000E3A6E1DEF71
:10259A0014F03B5037263C5038223D5039223E50E9
:1025AA003A223AA0DBEF12F0DDEF12F089EF13F0D6
:1025BA0046A0E2EF12F0E4EF12F0EAEF12F0D89040
:1025CA0046300109466EECEF12F0D890463237A039
:1025DA00F1EF12F0F3EF12F0F4EF12F0468E3A3404
:1025EA003A32393238323732452A89EF13F03B50C2
:1025FA00375C3C5038583D5039583A50800A3F6E43
:10260A003E50800A3F58D8B00DEF13F00FEF13F089
:10261A003AEF13F037503B5C3F6E38503C58406EEF
:10262A0039503D58416E3A503E58426EFF0E3F2493
:10263A00376EFF0E4020386EFF0E4120396EFF0EB6
:10264A0042203A6E800E431A466C4650D8A430EFA8
:10265A0013F032EF13F042EF13F0010E3726000E9B
:10266A00382239223A2242EF13F03B50375E3C506F
:10267A00385A3D50395A3E503A5A37503810391064
:10268A003A10D8A44BEF13F04DEF13F082EF13F08A
:10269A004650D8A453EF13F055EF13F082EF13F01E
:1026AA00000E376E000E386E000E396E000E3A6E4E
:1026BA001DEF14F0D8903736383639363A3646AEEA
:1026CA0069EF13F06BEF13F06CEF13F0378046A04D
:1026DA0071EF13F073EF13F077EF13F0D8804636EB
:1026EA0079EF13F0D89046364550D8B47FEF13F0FF
:1026FA0081EF13F082EF13F0450639AE87EF13F03E
:10270A0089EF13F05FEF13F0000E446E46AE90EFC0
:10271A0013F092EF13F0AAEF13F046C03FF07F0ECA
:10272A003F16D8B49BEF13F09DEF13F0A1EF13F00F
:10273A00010E446EAAEF13F037A0A6EF13F0A8EF2C
:10274A0013F0AAEF13F09DEF13F04450D8B4B0EF92
:10275A0013F0B2EF13F0DDEF13F0010E3726000E7F
:10276A00382239223A223AA0BDEF13F0BFEF13F014
:10277A00DDEF13F037C03FF038C040F039C041F008
:10278A003AC042F042344232413240323F323FC0D4
:10279A0037F040C038F041C039F042C03AF045281D
:1027AA00D8B4DAEF13F0DCEF13F0DDEF13F0452ABB
:1027BA004528D8B4E3EF13F0E5EF13F0EDEF13F08B
:1027CA004550D8A4EBEF13F0EDEF13F0FFEF13F041
:1027DA00000E376E000E386E000E396E000E3A6E1D
:1027EA004550D8A4FBEF13F0FDEF13F0FFEF13F001
:1027FA00000E436E45A004EF14F006EF14F009EF43
:10280A0014F0398E0AEF14F0399ED89045303A6E9A
:10281A0043AE12EF14F014EF14F015EF14F03A8EE1
:10282A0037C037F038C038F039C039F03AC03AF01A
:10283A0012000850800B116E08500824176E07AE5C
:10284A0029EF14F02BEF14F02CEF14F01780175027
:10285A00D8B432EF14F034EF14F047EF14F017281D
:10286A00D8A43AEF14F03CEF14F044EF14F0000E41
:10287A00056E000E066E000E076E000E086E078EBD
:10288A004FEF14F0000E056E000E066E000E076E76
:10289A00000E086E0C50800B111A0C500C24166E88
:1028AA000BAE5AEF14F05CEF14F05DEF14F01680E3
:1028BA001650D8B463EF14F065EF14F078EF14F003
:1028CA001628D8A46BEF14F06DEF14F075EF14F01E
:1028DA00000E096E000E0A6E000E0B6E000E0C6ED4
:1028EA000B8E80EF14F0000E096E000E0A6E000EB9
:1028FA000B6E000E0C6E1650D8B486EF14F088EFEB
:10290A0014F090EF14F01750D8A48EEF14F090EF53
:10291A0014F09AEF14F0000E056E000E066E000E0B
:10292A00076E000E086E32EF16F00B500502F3CF59
:10293A001CF0F4CF1DF01C50126E136A146A156A4B
:10294A001D50186E196A1A6A1B6A0A500602F3CFDA
:10295A001CF0F4CF1DF01C501226000E1322142274
:10296A0015221D501826000E19221A221B22095060
:10297A000702F3CF1CF0F4CF1DF01C501226000EF4
:10298A001322142215221D501826000E19221A226B
:10299A001B2214C015F013C014F012C013F0126AEF
:1029AA0009500602F3CF1CF0F4CF1DF01C5012267A
:1029BA001D501322000E1422000E15220A50050281
:1029CA00F3CF1CF0F4CF1DF01C5012261D50132219
:1029DA00000E1422000E152214C015F013C014F0B4
:1029EA0012C013F0126A09500502F3CF1CF0F4CF9B
:1029FA001DF01C5012261D501322000E1422000E28
:102A0A0015220B500602F3CF1CF0F4CF1DF01C5018
:102A1A0018261D501922000E1A22000E1B220A50D7
:102A2A000702F3CF1CF0F4CF1DF01C5018261D50DE
:102A3A001922000E1A22000E1B220B500702F3CF96
:102A4A001CF0F4CF1DF01C500D6E1D500E6E0F6A57
:102A5A00106A0FC010F00EC00FF00DC00EF00D6A14
:102A6A000D5018260E5019220F501A2210501B22F0
:102A7A0012C00DF013C00EF014C00FF015C010F004
:102A8A00190E4DEF15F0D89010320F320E320D326A
:102A9A00E82E48EF15F00D5018260E5019220F5047
:102AAA001A2210501B2214C015F013C014F012C0C1
:102ABA0013F0126A165017C00DF00E6A0D26000E9A
:102ACA000E22820E0D241C6EFF0E0E201D6E83EF49
:102ADA0015F0D890183619361A361B3615AE78EF17
:102AEA0015F07AEF15F07BEF15F01880D8901236B2
:102AFA001336143615361C06D8A01D061AAE88EFF2
:102B0A0015F08AEF15F06EEF15F0000E166E15AE81
:102B1A0091EF15F093EF15F0B7EF15F0FF0E1214C1
:102B2A000D6EFF0E13140E6EFF0E14140F6E7F0E31
:102B3A001514106E0D500E100F101010D8B4A8EF07
:102B4A0015F0AAEF15F0AEEF15F0010E166EB7EFFD
:102B5A0015F018A0B3EF15F0B5EF15F0B7EF15F0B3
:102B6A00AAEF15F01650D8B4BDEF15F0BFEF15F067
:102B7A00E3EF15F0010E1826000E19221A221B2265
:102B8A001BA0CAEF15F0CCEF15F0E3EF15F018C053
:102B9A000DF019C00EF01AC00FF01BC010F010345F
:102BAA0010320F320E320D320DC018F00EC019F06D
:102BBA000FC01AF010C01BF01C4A1D2A1DBEEEEFF2
:102BCA0015F01D5008E11C28D8A0EEEF15F0F0EF23
:102BDA0015F0FAEF15F0000E186E000E196E800E41
:102BEA001A6E7F0E1B6E28EF16F01DBE07EF16F049
:102BFA001D5006E11C04D8B005EF16F007EF16F0D9
:102C0A0013EF16F0000E186E000E196E000E1A6EF3
:102C1A00000E1B6E000E116E28EF16F01CC017F086
:102C2A00FF0E1816FF0E19167F0E1A16000E1B1627
:102C3A0017A022EF16F024EF16F025EF16F01A8EE1
:102C4A00D89017301B6E11501B1218C005F019C00E
:102C5A0006F01AC007F01BC008F012002150800BC2
:102C6A002E6E21502124356E20AE3EEF16F040EF35
:102C7A0016F041EF16F035803550D8B447EF16F00C
:102C8A0049EF16F05EEF16F03528D8A44FEF16F08C
:102C9A0051EF16F059EF16F0000E1E6E000E1F6E61
:102CAA00000E206E000E216E208E000E216E66EF41
:102CBA0016F0000E1E6E000E1F6E000E206E000E25
:102CCA00216E2550800B2E1A25502524366E24AEEF
:102CDA0071EF16F073EF16F074EF16F03680365077
:102CEA00D8B47AEF16F07CEF16F091EF16F036288A
:102CFA00D8A482EF16F084EF16F08CEF16F0000ECF
:102D0A00226E000E236E000E246E000E256E248E97
:102D1A00000E256E99EF16F0000E226E000E236E3D
:102D2A00000E246E000E256E22502310241025104A
:102D3A00D8A4A2EF16F0A4EF16F0BCEF16F0000E1E
:102D4A001E6E000E1F6E000E206E000E216E800E8B
:102D5A0020127F0E21122E5021121EC01EF01FC0FB
:102D6A001FF020C020F021C021F0FFEF17F03550EE
:102D7A00D8A4C2EF16F0C4EF16F0CEEF16F0000E8C
:102D8A001E6E000E1F6E000E206E000E216EFFEFEB
:102D9A0017F0365035C026F0276A265E000E275AED
:102DAA007F0E26242F6E000E2720306E1EC02AF0BA
:102DBA001FC02BF020C02CF021C02DF0000E1E6E7B
:102DCA00000E1F6E000E206E000E216E000E316E78
:102DDA00000E326E000E336E000E346E000E366E2A
:102DEA002FEF17F03650D8B4FDEF16F0FFEF16F0BC
:102DFA0016EF17F0D8902A362B362C362D36D89067
:102E0A001E361F362036213634AE0EEF17F010EF7D
:102E1A0017F011EF17F01E80D8903136323633365C
:102E2A00343622502A5C23502B5824502C582550D3
:102E3A002D58D8A023EF17F025EF17F02EEF17F033
:102E4A00348C22502A5E23502B5A24502C5A255057
:102E5A002D5A362A190E366435EF17F037EF17F068
:102E6A00F7EF16F02A502B102C102D10D8B440EF83
:102E7A0017F042EF17F05AEF17F031805AEF17F0B8
:102E8A00D8901E361F362036213634AE4FEF17F053
:102E9A0051EF17F052EF17F01E80D89031363236C4
:102EAA00333634362F06D8A0300620AE5FEF17F03F
:102EBA0061EF17F045EF17F0000E366E34AE68EF8B
:102ECA0017F06AEF17F08EEF17F0FF0E3114266E27
:102EDA00FF0E3214276EFF0E3314286E7F0E341441
:102EEA00296E2650271028102910D8B47FEF17F022
:102EFA0081EF17F085EF17F0010E366E8EEF17F09F
:102F0A001EA08AEF17F08CEF17F08EEF17F081EF03
:102F1A0017F03650D8B494EF17F096EF17F0BAEFCF
:102F2A0017F0010E1E26000E1F222022212221A0A8
:102F3A00A1EF17F0A3EF17F0BAEF17F01EC026F0B3
:102F4A001FC027F020C028F021C029F029342932D7
:102F5A0028322732263226C01EF027C01FF028C08A
:102F6A0020F029C021F02F4A302A30BEC5EF17F0D1
:102F7A00305008E12F28D8A0C5EF17F0C7EF17F097
:102F8A00D2EF17F0000E306E2F68000E1E6E000E84
:102F9A001F6E000E206E000E216E30BEDFEF17F09E
:102FAA00305006E12F04D8B0DDEF17F0DFEF17F04D
:102FBA00EDEF17F0000E306E000E2F6E000E1E6E33
:102FCA00000E1F6E000E206E000E216E000E2E6E79
:102FDA002FC035F035A0F4EF17F0F6EF17F0F9EF40
:102FEA0017F0208EFAEF17F0209ED8903530216E18
:102FFA00B0EF16F01200DBC047F0DCC048F0DDC0CD
:10300A0049F0DEC04AF037C047F038C048F039C04E
:10301A0049F03AC04AF0810E3B6EFF0E3C6E47C043
:10302A003DF048C03EF049C03FF04AC040F0180E9B
:10303A0024EF18F0D89040323F323E323D32E82E2B
:10304A001FEF18F03D503B24456E000E3C20466EA3
:10305A0046BE39EF18F0465009E1170E455CD8A074
:10306A0039EF18F03BEF18F045EF18F037C037F09A
:10307A0038C038F039C039F03AC03AF008EF19F0E0
:10308A0046BE4AEF18F04CEF18F0BCEF18F045C0F6
:10309A003BF0FF0E3C6EFF0E3D6E7F0E3E6E000E45
:1030AA003F6E3B665BEF18F063EF18F03F343F3238
:1030BA003E323D323C323B2E56EF18F03CC041F0D6
:1030CA003DC042F03EC043F03FC044F04150471477
:1030DA003B6E425048143C6E435049143D6E445076
:1030EA004A143E6E3B503C103D103E10D8A480EF6F
:1030FA0018F082EF18F084EF18F03BEF18F047C091
:10310A003BF048C03CF049C03DF04AC03EF0200EBA
:10311A0094EF18F0D8903E323D323C323B32E82EE2
:10312A008FEF18F03B503C103D103E10D8B4A0EF82
:10313A0018F0A2EF18F0AAEF18F0415047264250B3
:10314A0048224350492244504A22411C3B6E421CA9
:10315A003C6E431C3D6E441C3E6E3B5047163C5031
:10316A0048163D5049163E504A1600EF19F047C01E
:10317A003BF048C03CF049C03DF04AC03EF0200E4A
:10318A00CCEF18F0D8903E323D323C323B32E82E3A
:10319A00C7EF18F03B503C103D103E10D8A4D8EFB2
:1031AA0018F0DAEF18F0E4EF18F0000E476E000E90
:1031BA00486E000E496E000E4A6E00EF19F0D89064
:1031CA0047343B6E48343C6E49343D6E4A343E6E59
:1031DA003B503C103D103E10D8B4F6EF18F0F8EF13
:1031EA0018F000EF19F0000E476E000E486E800EC0
:1031FA00496EBF0E4A6E47C037F048C038F049C022
:10320A0039F04AC03AF012000D6E0D50D8B410EFE2
:10321A0019F012EF19F034EF19F008BE19EF19F08E
:10322A0017EF19F034EF19F005C009F006C00AF0DB
:10323A0007C00BF008C00CF0091E0A1E0B1E0C1E5C
:10324A00092A000E0A220B220C2209C00FF00AC01A
:10325A0010F00BC011F00CC012F03CEF19F005C0D1
:10326A000FF006C010F007C011F008C012F00550A8
:10327A00061007100810D8A445EF19F047EF19F007
:10328A0051EF19F0000E056E000E066E000E076E65
:10329A00000E086EE2EF19F0960E0E6E5BEF19F053
:1032AA000E2AD8901232113210320F32000E0F1439
:1032BA00096E000E10140A6E000E11140B6EFE0E2B
:1032CA0012140C6E09500A100B100C10D8A470EFCF
:1032DA0019F072EF19F055EF19F080EF19F00E2A74
:1032EA00010E0F26000E102211221222D89012323D
:1032FA00113210320F32000E0F14096E000E101424
:10330A000A6E000E11140B6EFF0E12140C6E095089
:10331A000A100B100C10D8A495EF19F097EF19F0BA
:10332A0074EF19F09FEF19F00E06D8900F36103689
:10333A001136123611BEA4EF19F0A6EF19F0AEEF4E
:10334A0019F0020E0E60ACEF19F0AEEF19F099EF1A
:10335A0019F00EB0B3EF19F0B5EF19F0B6EF19F096
:10336A00119ED8900E320EC009F00A6A0B6A0C6AD6
:10337A0009C00CF00B6A0A6A096A09500F120A504E
:10338A0010120B5011120C5012120D50D8B4D0EF6B
:10339A0019F0D2EF19F0DAEF19F008BED9EF19F0E7
:1033AA00D7EF19F0DAEF19F0128E0FC005F010C03E
:1033BA0006F011C007F012C008F01200000E1A6ED3
:1033CA00000E196E000E136E000E126EEFEF19F05A
:1033DA000C4A0D2A010E186E0CC0F6FF0DC0F7FF3D
:1033EA00F86A0800F550200AD8B4FEEF19F000EF89
:1033FA001AF01EEF1AF0F70E0E6EFF0E0F6E0CC0CB
:10340A00F6FF0DC0F7FFF86A0800F550106E116A52
:10341A000E5010260F501122115009E1050E105CB2
:10342A00D8A01AEF1AF01CEF1AF01EEF1AF0000ECD
:10343A00186E18C014F0156A14501510D8A428EF85
:10344A001AF02AEF1AF0EDEF19F034EF1AF0000E25
:10345A00136E010E126E0C4A0D2A6BEF1AF00CC095
:10346A00F6FF0DC0F7FFF86A0800F5500E6E0F6AF6
:10347A000F50000AD8B444EF1AF06BEF1AF00E504E
:10348A002B0AD8B430EF1AF0060AD8B42CEF1AF087
:10349A006BEF1AF019C005F01AC006F0000E086E9C
:1034AA000A0E076E5DEC25F00CC0F6FF0DC0F7FFA3
:1034BA00F86A0800F550055E000E065A300E05241B
:1034CA00196E000E06201A6E30EF1AF0D00E0E6E2C
:1034DA00FF0E0F6E0CC0F6FF0DC0F7FFF86A08006A
:1034EA00F550106E116A0E5010260F50112211500D
:1034FA000AE10A0E105CD8A085EF1AF088EF1AF0DC
:10350A00010E89EF1AF0000E166E176A1650171080
:10351A00D8A492EF1AF094EF1AF04FEF1AF0125063
:10352A001310D8A49BEF1AF09DEF1AF0ABEF1AF024
:10353A0019C00EF01AC00FF00E1E0F1E0E4A0F2AE7
:10354A000EC00CF00FC00DF0AFEF1AF019C00CF05E
:10355A001AC00DF01200A4EC23F0010177514C6E51
:10356A004B6A78514B244D6E000E4C204E6E4DC066
:10357A0005F04EC006F0076A086A000E09EC19F059
:10358A0005C04FF006C050F007C051F008C052F015
:10359A00000E226EFF0E236E7F0E246E470E256EDE
:1035AA00000E096E000E0A6EFA0E0B6E420E0C6EBB
:1035BA004FC005F050C006F051C007F052C008F0E5
:1035CA001EEC14F005C01EF006C01FF007C020F064
:1035DA0008C021F033EC16F01EC037F01FC038F0D7
:1035EA0020C039F021C03AF0000E3B6E000E3C6E4E
:1035FA00C00E3D6EC00E3E6EBEEC11F037C04FF0ED
:10360A0038C050F039C051F03AC052F0000E1E6E68
:10361A00000E1F6EC80E206E420E216E4FC022F0A1
:10362A0050C023F051C024F052C025F0C7EC1BF063
:10363A00D8B022EF1BF024EF1BF02CEF1BF0000E8A
:10364A004F6E000E506EC80E516E420E526E52BE32
:10365A0033EF1BF031EF1BF03BEF1BF0000E4F6E08
:10366A00000E506E000E516E000E526E4FC047F0A3
:10367A0050C048F051C049F052C04AF01200073415
:10368A0008340E6E0E50D8A44DEF1BF04FEF1BF00E
:10369A0059EF1BF0000E056E000E066E000E076E47
:1036AA00000E086EC6EF1BF005C009F006C00AF04E
:1036BA0007C00BF008C00CF0200E69EF1BF0D89081
:1036CA000C320B320A320932E82E64EF1BF0095031
:1036DA000D6E078EFF0E0516FF0E0616FF0E071655
:1036EA00000E0816960E0E5E0EBE80EF1BF07EEFE1
:1036FA001BF096EF1BF00E50800A970FD8B088EF98
:10370A001BF08AEF1BF08CEF1BF04FEF1BF0D890E9
:10371A0008320732063205320E3E8CEF1BF0AEEF4E
:10372A001BF01F0E0E649CEF1BF09EEF1BF0A6EF22
:10373A001BF04FEF1BF0D8900536063607360836D1
:10374A000E060E50D8A4ACEF1BF0AEEF1BF0A0EFA4
:10375A001BF00D50D8B4B4EF1BF0B6EF1BF0BEEF60
:10376A001BF0081E071E061E056C000E0622072205
:10377A00082205C005F006C006F007C007F008C019
:10378A0008F01200000E1E14266E000E1F14276E7B
:10379A00800E2014286E7F0E2114296E26502710C1
:1037AA0028102910D8A4DCEF1BF0DEEF1BF0E6EF9F
:1037BA001BF0000E1E6E000E1F6E000E206E000E15
:1037CA00216E000E2214266E000E2314276E800E20
:1037DA002414286E7F0E2514296E265027102810CF
:1037EA002910D8A4FBEF1BF0FDEF1BF005EF1CF02E
:1037FA00000E226E000E236E000E246E000E256E41
:10380A0021AE0AEF1CF00CEF1CF015EF1CF01E6C39
:10381A001F1ED8B01F2A201ED8B0202A800E21567B
:10382A0025AE1AEF1CF01CEF1CF025EF1CF0226CE1
:10383A00231ED8B0232A241ED8B0242A800E255647
:10384A00000E1E1A000E1F1A000E201A800E211AD0
:10385A00000E221A000E231A000E241A800E251AB0
:10386A0022501E5C23501F5824502058255021589E
:10387A00D8B042EF1CF044EF1CF047EF1CF0D89090
:10388A0048EF1CF0D8801200DFC00FF0E0C010F043
:10389A00E1C011F0E2C012F005C00FF006C010F04E
:1038AA0007C011F008C012F00FC009F010C00AF0EA
:1038BA0011C00BF012C00CF0180E69EF1CF0D89072
:1038CA000C320B320A320932E82E64EF1CF009502E
:1038DA000D6E0E6A0D500E10D8A476EF1CF078EF1C
:1038EA001CF098EF1CF0D8900F34096E10340A6E51
:1038FA0011340B6E12340C6E09500A100B100C1096
:10390A00D8A48AEF1CF08CEF1CF092EF1CF0000E8A
:10391A00066E020E056EC7EF1CF0000E066E030E51
:10392A00056EC7EF1CF00D280E10D8A49FEF1CF0EF
:10393A00A1EF1CF0C3EF1CF00FC009F010C00AF091
:10394A0011C00BF012C00CF0090ED89009360A36D5
:10395A000B360C36E82EAAEF1CF009500A100B1091
:10396A000C10D8B4BBEF1CF0BEEF1CF0010EBFEF79
:10397A001CF0000E056E066AC7EF1CF0000E066EFC
:10398A00040E056E120005C00CF006C00DF007C04B
:10399A000EF008C00FF00906D8A00A06092806E1A9
:1039AA000A28D8A4DBEF1CF0DDEF1CF0EAEF1CF0CC
:1039BA00000E066E000E056E35EF1DF00C4A0D2A3C
:1039CA000E4A0F2A0906D8A00A060CC0D9FF0DC054
:1039DA00DAFFDF50D8B4F4EF1CF0F6EF1CF023EF57
:1039EA001DF00EC0F6FF0FC0F7FFF86A0800F55089
:1039FA000009D8B403EF1DF005EF1DF023EF1DF009
:103A0A0009500A10D8B40CEF1DF00EEF1DF023EF89
:103A1A001DF00CC0D9FF0DC0DAFFDF500B6E0EC0CF
:103A2A00F6FF0FC0F7FFF86A0800F5500B18D8B474
:103A3A0021EF1DF023EF1DF0E3EF1CF00CC0D9FFBE
:103A4A000DC0DAFFDF500B6E0EC0F6FF0FC0F7FF96
:103A5A00F86A0800F5500B5C056E066AD8A00606DF
:103A6A001200A4EC23F0010174514C6E4B6A75519B
:103A7A004B244D6E000E4C204E6E4DC005F04EC0CC
:103A8A0006F0076A086A000E09EC19F005C04FF043
:103A9A0006C050F007C051F008C052F0000E226E66
:103AAA00FF0E236E7F0E246E470E256E000E096EE2
:103ABA00000E0A6E2F0E0B6E430E0C6E4FC005F0F1
:103ACA0050C006F051C007F052C008F01EEC14F0C6
:103ADA0005C01EF006C01FF007C020F008C021F084
:103AEA0033EC16F01EC037F01FC038F020C039F092
:103AFA0021C03AF0000E3B6E000E3C6E340E3D6E55
:103B0A00C20E3E6EBEEC11F037C04FF038C050F016
:103B1A0039C051F03AC052F04FC047F050C048F097
:103B2A0051C049F052C04AF012000001F4A1A0EFBE
:103B3A001DF0A2EF1DF0ACEF1DF019C010F01AC075
:103B4A0011F017C012F018C013F082EC23F01CBE5B
:103B5A00B1EF1DF0B3EF1DF0B9EF1DF01BC020F05F
:103B6A001CC021F0BDEF1DF0000E216E000E206E6C
:103B7A00000E1F6E000E1E6ECFEF1DF0000E086EB7
:103B8A00200E076E17C009F018C00AF076EC20F074
:103B9A001E4A1F2A20501E5C1F50800A1D6E21508B
:103BAA00800A1D58D8A0DCEF1DF0DEEF1DF0C3EF30
:103BBA001DF00001F4B1E4EF1DF0E6EF1DF0F0EFA7
:103BCA001DF019C010F01AC011F017C012F018C079
:103BDA0013F082EC23F019C005F01AC006F07DEC50
:103BEA0024F020500524176E21500620186E12006A
:103BFA00000E0A6E08BE06EF1EF004EF1EF00CEF70
:103C0A001EF0076C081ED8B0082A010E0A6E06BEFE
:103C1A0013EF1EF011EF1EF019EF1EF0056C061ED1
:103C2A00D8B0062A010E0A1A000E0C6E000E0B6E90
:103C3A0007500810D8B424EF1EF026EF1EF04EEFFE
:103C4A001EF0010E096E2EEF1EF0D89007360836C8
:103C5A00092A08AE33EF1EF035EF1EF02AEF1EF0E8
:103C6A00D8900B360C360750055C08500658D8A079
:103C7A0041EF1EF043EF1EF048EF1EF00750055EBD
:103C8A000850065A0B80D89008320732092E35EFB1
:103C9A001EF00A50D8B454EF1EF056EF1EF05AEF39
:103CAA001EF00B6C0C1ED8B00C2A0BC005F00CC011
:103CBA0006F01200CFEC25F00009D8B467EF1EF029
:103CCA0069EF1EF0A4EF1EF077EF1EF046EC26F027
:103CDA00C0EF1EF042EC26F0C0EF1EF03AEC26F0E0
:103CEA00C0EF1EF012C10EF013C10FF002D888EF18
:103CFA001EF00500FA6E01010651FD6E0751FE6EB7
:103D0A00FF6AFA501200106E116A1150000AD8B4F4
:103D1A0091EF1EF073EF1EF01050010AD8B473EF42
:103D2A001EF0030AD8B46BEF1EF0010AD8B46FEF85
:103D3A001EF0070AD8B473EF1EF073EF1EF00101EC
:103D4A0023911DC1D9FF1EC1DAFF1D4B1E2BDF5067
:103D5A004AEC26F001011F07D8A020071F512011A5
:103D6A00D8A4BAEF1EF0BCEF1EF0BFEF1EF0060E8D
:103D7A00C0EF1EF0030E1200C30E5724D96EDA6A82
:103D8A00000EDA22000EDF6EABA4CEEF1EF0D0EFEB
:103D9A001EF0E4EF1EF0C30E5724D96EDA6A000E45
:103DAA00DA220001DF8202D8E4EF1EF00500FA6E83
:103DBA00F851FD6EF951FE6EFF6AFA501200ABA27D
:103DCA00E9EF1EF0EBEF1EF000EF1FF0C30E5724D1
:103DDA00D96EDA6A000EDA220001DF8402D800EF17
:103DEA001FF00500FA6E01018651FD6E8751FE6EC5
:103DFA00FF6AFA501200C30E5724D96EDA6A000E0F
:103E0A00DA22DF50D8B40CEF1FF00EEF1FF01DEFCF
:103E1A001FF002D81BEF1FF00500FA6E0101845152
:103E2A00FD6E8551FE6EFF6AFA5012001FEF1FF0F9
:103E3A001EEC25F01200000E0A6E06BE29EF1FF0D6
:103E4A0027EF1FF02FEF1FF0056C061ED8B0062AC9
:103E5A00010E0A6E08BE36EF1FF034EF1FF03AEF7C
:103E6A001FF0076C081ED8B0082A07500810D8B4EB
:103E7A0041EF1FF043EF1FF067EF1FF0010E096ECD
:103E8A004BEF1FF0D89007360836092A08AE50EFD4
:103E9A001FF052EF1FF047EF1FF00750055C085064
:103EAA000658D8A05BEF1FF05DEF1FF061EF1FF01F
:103EBA000750055E0850065AD89008320732092E74
:103ECA0052EF1FF00A50D8B46DEF1FF06FEF1FF0DA
:103EDA0073EF1FF0056C061ED8B0062A05C005F060
:103EEA0006C006F01200BAEC25F0060E0001C26FF9
:103EFA00130EC16FAD0EE82EFED7C12FFCD7C22F0D
:103F0A00FAD700F000F0F28EF28C36EC1DF047C0C2
:103F1A00E7F048C0E8F049C0E9F04AC0EAF0B0EC7E
:103F2A001AF047C0E3F048C0E4F049C0E5F04AC0DF
:103F3A00E6F03E0E01017E6F100E7F6FE7C080F142
:103F4A00E8C081F1E9C082F1EAC083F149EC25F0C9
:103F5A00210E01017E6F100E7F6FE3C080F1E4C075
:103F6A0081F1E5C082F1E6C083F149EC25F0060E45
:103F7A000001C26F130EC16FAD0EE82EFED7C12F1E
:103F8A00FCD7C22FFAD700F000F08AEF1FF058EFE3
:103F9A0000F0000E05140D6E000E06140E6E800E53
:103FAA0007140F6E7F0E0814106E0D500E100F10AE
:103FBA001010D8A4E3EF1FF0E5EF1FF0EDEF1FF0AC
:103FCA00000E056E000E066E000E076E000E086EDD
:103FDA00000E09140D6E000E0A140E6E800E0B14DC
:103FEA000F6E7F0E0C14106E0D500E100F10101065
:103FFA00D8A402EF20F004EF20F00CEF20F0000E1E
:10400A00096E000E0A6E000E0B6E000E0C6E095041
:10401A0005180FE10A5006180CE10B50071809E1C0
:10402A000C500818D8B41CEF20F01EEF20F021EF36
:10403A0020F0D89022EF20F0D88012005EEC26F013
:10404A001DC1D9FF1EC1DAFFDF6E01011D4B1E2BF8
:10405A001F07D8A020071F512011D8B437EF20F02E
:10406A0039EF20F03EEF20F04EEC26F0050E75EF0A
:10407A0020F0238749EF20F02EEC26F075EF20F090
:10408A0032EC26F075EF20F00CC10EF00DC10FF0E6
:10409A0002D859EF20F00500FA6E0051FD6E015169
:1040AA00FE6EFF6AFA501200106E116A1150000A71
:1040BA00D8B462EF20F045EF20F01050010AD8B4CE
:1040CA0045EF20F0030AD8B441EF20F0010AD8B432
:1040DA0041EF20F0070AD8B445EF20F045EF20F071
:1040EA00120009500A10D8B47DEF20F07FEF20F0BB
:1040FA0088EF20F009500A10D8A486EF20F088EF44
:10410A0020F08DEF20F0075003EC26F0C0EF20F0EE
:10411A0020EE04F00950D9260A50DA22DE50DE10C9
:10412A00D8B49AEF20F09CEF20F0B7EF20F020EE01
:10413A0004F00950D9260A50DA2210EE02F009508A
:10414A00E1260A50E222DE50E65CE650800A0F6E53
:10415A00DE50800A0F58D8B0B5EF20F0B7EF20F044
:10416A00C0EF20F020EE02F00950D9260A50DA22D8
:10417A00DE2A000EDD221200056E010E066E010116
:10418A0023B5CAEF20F0CCEF20F006EF21F005C0EE
:10419A001CF12393238523910E0E216F010E1B6FB1
:1041AA00F40E1A6F2387C80E006F4C0E016F000EB3
:1041BA000C6F000E0D6FC80E026F4C0E036F000ECF
:1041CA000E6F000E0F6FC80E046F4C0E056F000EB7
:1041DA00106F000E116FC80E066F4C0E076F000E9F
:1041EA00126F000E136FC40E086F4C0E096F000E8B
:1041FA00146F000E156F70EC26F082EC25F0000E9D
:10420A00066E065012000101238719EF21F03EECD9
:10421A0026F045EF21F05CEC26F0030E45EF21F085
:10422A003AEC26F045EF21F00CC10EF00DC10FF06B
:10423A0002D829EF21F00500FA6E0051FD6E0151F6
:10424A00FE6EFF6AFA501200106E116A1150000ACF
:10425A00D8B432EF21F015EF21F01050010AD8B48A
:10426A0015EF21F0030AD8B40CEF21F0010AD8B4F3
:10427A000CEF21F0070AD8B410EF21F015EF21F066
:10428A001200096E05500610D8B44EEF21F050EF17
:10429A0021F06AEF21F00950020D000EF324D96EC5
:1042AA00010EF420DA6E05C0DEFF06C0DDFF0950FC
:1042BA00020D0C0EF324D96E010EF420DA6E07C03B
:1042CA00DEFF08C0DDFF82EF21F00950020D000E6B
:1042DA00F324D96E010EF420DA6EC80EDE6E4C0E8F
:1042EA00DD6E0950020D0C0EF324D96E010EF42076
:1042FA00DA6E000EDE6E000EDD6E12009D9A820EE0
:10430A00056E3D0E066E12EC26F09D98D00E056ED7
:10431A00470E066E0DEC26F0080EB86E900EAB6EC8
:10432A00240EAC6ECF0EAF6E000EB06EE40E056EAC
:10433A004C0E066E1CEC26F0A80E056E4C0E066E90
:10434A0017EC26F0AE0E056E4C0E066E21EC26F02A
:10435A00000E0001F66F000E596E000E586E080E20
:10436A00FE6F000E576E000E566E000EF76F9D8A96
:10437A00120070EC26F0010123A1C6EF21F0C8EF6C
:10438A0021F0D5EF21F0CFEC25F00009D8B4D0EF19
:10439A0021F0D2EF21F0D5EF21F00F0E0101216FAC
:1043AA0001012151020D010EF324F66E100EF420C4
:1043BA00F76EF86A000EF8220900F5CF12F009002C
:1043CA00F5CF13F002D8F3EF21F00500FA6E125080
:1043DA00FD6E1350FE6EFF6AFA5012000101216F42
:1043EA00120001012391020E226F04EF22F03EEC2B
:1043FA0026F028EF22F03AEC26F028EF22F010C13E
:10440A000EF011C10FF002D814EF22F00500FA6E77
:10441A000451FD6E0551FE6EFF6AFA501200106ECD
:10442A00116A1150000AD8B41DEF22F000EF22F0F1
:10443A001050020AD8B4FCEF21F0010AD8B4FCEFFC
:10444A0021F000EF22F01200B9C0BDF0BAC0BEF0F0
:10445A00000E0001EF6F000EEE6F47EF22F0B7C0BB
:10446A009DF0B8C09EF0BD0E9F6F000EA06FBBC03E
:10447A00A1F0BCC0A2F088EC0EF000019D51EE271D
:10448A009E51EF23BDC0F6FFBEC0F7FFF86A0800D1
:10449A00F5500009D8A454EF22F056EF22F034EF79
:1044AA0022F0EEC0B7F0EFC0B8F01200BF0E0D6EEA
:1044BA00FF0E0E6E0BC00FF00CC010F00D500F2641
:1044CA000E50102210500AE11A0E0F5CD8A070EF9D
:1044DA0022F073EF22F0010E74EF22F0000E116E3B
:1044EA00126A11501210D8B47DEF22F07FEF22F039
:1044FA0086EF22F0200E0B100B6E0C500C6E8AEF1A
:10450A0022F00BC00BF00CC00CF0120007C00BF02D
:10451A0008C00CF005C00DF006C00EF00B50096E75
:10452A000C500A6E0B4A0C2A09C0F6FF0AC0F7FFA4
:10453A00000EF86E0DC0D9FF0EC0DAFF0D4A0E2A22
:10454A000F0EF76403D00800F55005D0F6CFE9FF47
:10455A00F7CFEAFFEF50DF6EDF50D8A4B7EF22F0B3
:10456A00B9EF22F093EF22F012001A6E1A50C1EC42
:10457A0020F00009D8B4C4EF22F0C6EF22F0BBEF56
:10458A0022F016C005F017C006F018C007F019C0CF
:10459A0008F070EC25F0000E0A6E000E0B6E000E8D
:1045AA000C6E000E0D6EA2EC25F026EC26F008EC3F
:1045BA0025F0E806D8B4E4EF22F0E6EF22F0DCEFCB
:1045CA0022F01200056E0001FE51D8B4EFEF22F07E
:1045DA00F1EF22F0E8EF22F09DB8F6EF22F0F8EFC3
:1045EA0022F0FCEF22F005C0ADFF11EF23F09D98F9
:1045FA00D30E5924D96EDA6A000EDA2205C0DFFF1B
:10460A00592A070E59640CEF23F00EEF23F010EF2E
:10461A0023F0000E596EFE079D881200010E0B6EE4
:10462A00200E05180610D8B41DEF23F01FEF23F053
:10463A0038EF23F0F70E076EFF0E086E05C009F07B
:10464A0006C00AF00750092608500A220A5009E152
:10465A00050E095CD8A034EF23F036EF23F038EFCB
:10466A0023F0000E0B6E0BC005F0066A1200000E56
:10467A004B1A000E4C1A000E4D1A800E4E1A47C0E5
:10468A0037F048C038F049C039F04AC03AF04BC058
:10469A003BF04CC03CF04DC03DF04EC03EF0BEEC8D
:1046AA0011F037C047F038C048F039C049F03AC075
:1046BA004AF012001A6E1A50C1EC20F00009D8B460
:1046CA0069EF23F06BEF23F060EF23F016C005F0DB
:1046DA0017C006F018C007F019C008F070EC25F0F2
:1046EA002AEC26F008EC25F0E806D8B47FEF23F090
:1046FA0081EF23F077EF23F01200000E166E000E02
:10470A00156E93EF23F014C007F0086A12C009F07F
:10471A0013C00AF076EC20F0154A162A1550102418
:10472A00D96E16501120DA6EDF50146E1450D8A4C8
:10473A00A1EF23F0A3EF23F088EF23F01200FD0E80
:10474A001C6E1C0E166E000E176E000E196E010EF0
:10475A00186E440EBAEC22F01A0E1B6EF80EE82EF2
:10476A00FED71B2EFCD700F000F0740E166E010E59
:10477A00176E000E196E060E186E440E5FEC23F0CB
:10478A001200146E010E156E010123B3CFEF23F050
:10479A00D1EF23F0E6EF23F02383000E156E1450B9
:1047AA00D8B4DAEF23F0DCEF23F0E0EF23F0010EC8
:1047BA00216FE2EF23F0020E216F6AEC26F093ECF0
:1047CA0025F015501200080E0001FE61EFEF23F0EC
:1047DA00F1EF23F007EF24F0D30E5824D96EDA6AEA
:1047EA00000EDA22DF50AD6E582A070E586400EF29
:1047FA0024F002EF24F004EF24F0000E586EFE2B92
:10480A0008EF24F09D98120020EE02F00E50D926EF
:10481A000F50DA22DECF05F0DDCF06F00EC0D9FF49
:10482A000FC0DAFFDECF07F0DDCF08F070EC25F01D
:10483A00000E0A6E000E0B6E000E0C6E000E0D6E50
:10484A00AEEC25F0020E1200BF0E076EFF0E086EC8
:10485A0005C009F006C00AF00750092608500A22C6
:10486A000A500AE11A0E095CD8A03EEF24F041EF83
:10487A0024F0010E42EF24F0000E056E066A1200C3
:10488A000550061007100810D8B44EEF24F050EF68
:10489A0024F058EF24F0000E051A000E061A000E36
:1048AA00071A800E081A05C005F006C006F007C0F0
:1048BA0007F008C008F01200D00E076EFF0E086E4F
:1048CA0005C009F006C00AF00750092608500A2256
:1048DA000A500AE10A0E095CD8A076EF24F079EFB3
:1048EA0024F0010E7AEF24F0000E056E066A12001B
:1048FA0005C007F006C008F085EF24F0054A062A2D
:10490A0005C0D9FF06C0DAFFDF50D8A48FEF24F024
:10491A0091EF24F083EF24F00750055C056E0850F0
:10492A000658066E1200000E8D6E000E8C6E000E7A
:10493A00896E000E8A6E000E8B6E070E966E926856
:10494A009368BF0E946E95687E681F0E7F6E000E88
:10495A007C6EF18E12000EC005F00FC006F0000E3C
:10496A00086E010E076E70EC25F0000E0A6E000E3E
:10497A000B6E000E0C6E000E0D6EAEEC25F0040EE2
:10498A0012000EC005F00FC006F0000E086E020EEF
:10499A00076E70EC25F0000E0A6E000E0B6E000E0C
:1049AA000C6E000E0D6EAEEC25F0020E12000EC05B
:1049BA0005F00FC006F0000E086E010E076E70ECCF
:1049CA0025F0000E0A6E000E0B6E000E0C6E000E25
:1049DA000D6EAEEC25F0020E12000EC005F00FC0EF
:1049EA0006F0000E086E020E076E70EC25F0000E3F
:1049FA000A6E000E0B6E000E0C6E000E0D6EAEEC03
:104A0A0025F0040E1200010E056E010123B310EF0A
:104A1A0025F012EF25F01CEF25F023951C6970ECA8
:104A2A0026F06CEC26F06EEC26F022C105F005505B
:104A3A001200CB0E5724D96EDA6A000EDA22AECFF4
:104A4A00DFFF572A070E57642DEF25F02FEF25F0C9
:104A5A0031EF25F0000E576E0001F72B120001EE20
:104A6A0000F07E0EEE6AE806FDE100EEC3F0350EB8
:104A7A00EE6AE806FDE1596A586A576A566A5A9018
:104A8A005A92000178EF1FF0800E0001BF6F010EED
:104A9A00C06F000EB76F000EB86F7EC1B9F07FC14C
:104AAA00BAF0BF0EBB6F000EBC6F29EC22F01200E9
:104ABA0005500702F3CF09F0F4CF0AF005500802B7
:104ACA00F3500A2606500702F3500A2609C005F0D9
:104ADA000AC006F01200010123A776EF25F078EF4D
:104AEA0025F081EF25F005C01DF106C01EF107C0B3
:104AFA001FF108C020F123971200C6BA87EF25F0EC
:104B0A0089EF25F092EF25F0000EC76E080EC66EEB
:104B1A00000EC56E130EC86EC68A120099EF25F0F4
:104B2A00D9EC25F0BEEC21F0010123B39FEF25F06B
:104B3A00A1EF25F095EF25F012000AC005F00BC091
:104B4A0006F00CC007F00DC008F0020E46EC21F08A
:104B5A0012000AC005F00BC006F00CC007F00DC029
:104B6A0008F0000E46EC21F012005AEC26F0C5ECD3
:104B7A0025F098EC24F008EC26F083EC21F01200E2
:104B8A00000EC76E080EC66E000EC56E130EC86EF6
:104B9A00C69A1200C5BCD4EF25F0D7EF25F0010E56
:104BAA00D8EF25F0000E12009EA6DEEF25F0E0EF0A
:104BBA0025F0D9EF25F01200010123811C511C2593
:104BCA004AEC26F0030E120001012381D8801C351D
:104BDA004AEC26F0050E120001012393000E226F03
:104BEA000E0E12000101239160EC26F0040E120051
:104BFA0001012393000E226F0E0E1200066E06505C
:104C0A00E7EC22F01200600ED36E000E9B6E1200CB
:104C1A0005C0FCF006C0FDF0120005C0FAF006C09F
:104C2A00FBF0120005C086F106C087F1120005C02C
:104C3A00F8F006C0F9F0120005C084F106C085F14B
:104C4A001200000EC6EC23F01200010EC6EC23F08F
:104C5A00120051EC26F0090E120051EC26F00A0E51
:104C6A0012004EEC26F0050E120066EC26F0000E3D
:104C7A00120068EC26F0010E120068EC26F0020E13
:104C8A00120068EC26F0010E1200056E05C0C9FF7D
:104C9A001200C59AC5881200C58AC5881200AB9849
:104CAA00AB8812001EEC25F01200D09E12009E86E0
:104CBA001200C9501200C5861200050E1200010E1C
:104CCA001200C5841200C5821200C58012009D968A
:0C4CDA001200C69A12009E9612001200F2
:020000040020DA
:08000000FFFFFFFFFFFFFFFF00
:020000040030CA
:0E000000FF081F1EFF0B81FF0FC00FE00F4017
:00000001FF
